:020000040800F2
:100000000000022049970008E9930008EF930008D8
:10001000F5930008FB93000801940008000000001D
:10002000000000000000000000000000079400082D
:100030001594000800000000239400083194000883
:1000400099970008999700089997000899970008D0
:1000500099970008999700089997000899970008C0
:100060009997000899970008999700083D9400080F
:100070005194000899970008659400089997000822
:10008000799400088D9400089997000899970008C2
:10009000A19400089997000899970008999700087B
:1000A00099970008B5940008999700089997000857
:1000B000C994000899970008999700089997000833
:1000C0009997000899970008999700089997000850
:1000D00099970008DD940008F59400080D95000834
:1000E00099970008999700089997000829950008A2
:1000F0003D950008999700089997000851950008C8
:100100009997000899970008659500089997000845
:1001100099970008799500088D950008A195000829
:1001200099970008B5950008C995000899970008A7
:10013000999700080000000000000000999700084F
:1001400099970008DD95000899970008999700088D
:10015000999700089997000899970008F195000869
:1001600099970008999700089997000899970008AF
:10017000999700089997000800000000000000000F
:08018000999700089997000807
:100190000348044B834202D0034B03B11847704716
:1001A000840000208400002000000000054806496B
:1001B0000B1AD90F01EBA301491002D0034B03B175
:1001C00018477047840000208400002000000000D1
:1001D00010B5064C237843B9FFF7DAFF044B13B18F
:1001E0000448AFF300800123237010BD8800002075
:1001F00000000000A828010808B5044B1BB1044901
:100200000448AFF30080BDE80840CFE700000000DD
:100210008C000020A828010808B52DED028BB0EE57
:10022000408A00F02FF8144B93F900300133F0EEC0
:10023000408A0FD0B4EE488AF1EE10FA0AD6B0EE3A
:10024000480A00F0A3FAF7EE007AB4EEE70AF1EEFE
:1002500010FA04DCB0EE680ABDEC028B08BD01F0B8
:10026000D3F8BDEC028B034621221A600348BDE897
:10027000084000F093BA00BF00000020DC33010802
:1002800000F006B938B510EE105A25F00044B4F16C
:100290007E5F2DED048B00F085807ADCB4F17C5F0D
:1002A0000FDAB4F1485F80F29C80DFED697A70EE7E
:1002B000277AB7EE007AF4EEC77AF1EE10FA00F37F
:1002C0008D8000F063FAF7EE007A37EEC00AB6EEE2
:1002D000008A20EE088A9FED5F7ADFED5F6A9FED6E
:1002E0005F6A9FED5F5ADFED5F5ADFED5F8AE8EEF0
:1002F000076A9FED5E7AA8EE067A9FED5D6AA6EE2C
:10030000885AA7EE086A9FED5B7ADFED5B6AE5EE3F
:10031000085AA6EE087AE5EE886AE7EE087AE6EE75
:10032000888AB0EE480AB0EE679A00F057F9534B4E
:100330009C4268EE888A42DC10EE103A23F47F6318
:1003400023F00F0306EE903AA6EEE68A70EE267AC8
:1003500088EE895AC8EE274A9FED497ADFED497A3F
:10036000B0EE006AA4EEC67A30EE000AF0EE675AEC
:10037000E6EEC65A90EE057A37EE657A37EEC77A22
:10038000002D0ADCBDEC048BB1EE477AB0EE470AD3
:1003900038BD70EE407A87EEA77ABDEC048BB0EEE4
:1003A000470A38BD9FED367ADFED377A20EE077ABF
:1003B000BDEC048BA0EE277AB0EE470A38BD88EE7C
:1003C000896A9FED327ADFED307AA0EE060AF0EE10
:1003D000006AA0EE267A37EEC77AD1E7B0EE407A0F
:1003E000DBE760EE007A9FED1B7ADFED1B6A9FED85
:1003F0001C6ADFED1A5A9FED1B5AE7EE876ABDECC7
:10040000048BA6EEA76A9FED197ADFED196AA7EEB5
:10041000A57AA6EE275AE7EE276ADFED175A9FED79
:10042000156A9FED117AE5EE275AA6EEA76AA5EEAA
:10043000A77AF7EE006AE6EE276A67EE277AB0EE53
:10044000407A87EEA66AA0EE067AB0EE470A38BD7B
:10045000CAF2497108EF1138047F4F3A2EC69D3D0C
:10046000461124BDA80A4E3EABAA2A3E613330BFD6
:100470002D57014039D119C090B0A6BE9999793F46
:100480002EBD3BB3DB0F493FDB0FC93F2EBD3B33D6
:1004900010B582B0CDED010A019B23F00042B2F10C
:1004A000FF4FF0EE407A30DC10EE100A20F00041F1
:1004B000B1F1FF4F29DCB3F17E5F42D09C1704F00D
:1004C000020444EAD07431B37AB3B2F1FF4F40D0A2
:1004D000B1F1FF4F29D08A1AB2F1F45F4FEAE2512D
:1004E00034DA002B42DA3C3140DA9FED340A012C39
:1004F0004ED0022C43D064B19FED317ADFED317ADA
:1005000030EE070A30EE670A03E09DED017A37EE20
:10051000270A02B010BD022C10D09FED2B0A032C2D
:1005200018BFB0EE670A02B010BD9FED280ADFEDDC
:10053000287A0028B8BFB0EE670AEAE79FED210AE3
:10054000E7E702B0BDE8104000F04CB89FED1F0A8D
:10055000CDE7B1F1FF4F04F1FF3420D0022C26D8B3
:100560001C4B03EB840494ED030AD2E79DED017A62
:1005700087EE870A00F00AF900F034F8B7E79FED3C
:10058000107ADFED107A30EE070A37EEC00AC0E7C6
:1005900010EE103A03F1004300EE103AB9E7022CD6
:1005A00008D80C4B03EB840494ED000AB1E79FEDEF
:1005B000030AAEE79FED080AABE700BF00000000AA
:1005C0002EBDBB33DB0F4940DB0F49C0DB0FC93FFA
:1005D000DB0FC9BF90300108DB0F493FB1EEC00A05
:1005E000704700BF38B510EE105A25F00044B4F142
:1005F000A14FF0EE407A0BDBB4F1FF4F58DCDFED9A
:10060000517A9FED510A002DC8BFB0EE670A38BD80
:100610004E4B9C425BDCB4F1445F4CDB4FF0FF324D
:1006200067EEA76ADFED4A4ADFED4A5A9FED4A5A64
:100630009FED4A4A26EEA67AB0EE666AE7EE245AA5
:10064000531CDFED474ADFED476AA5EE875AE7EE18
:10065000246ADFED455ADFED454AE6EE875AA5EEFE
:10066000074A9FED435ADFED436AA5EE875AE4EE51
:10067000074ADFED415AE4EE876AE5EE075A66EE77
:10068000866A25EE877A37D03C4B03EB820376EE01
:10069000876A93ED000A93ED047A96EEA70A002D7F
:1006A00070EE677A37EE670AB1DAB1EE400A38BD0C
:1006B00030EE000A38BD9FED327A30EE077AF7EE61
:1006C000006AB4EEE67AF1EE10FAA7DD38BD00F06C
:1006D0005DF82C4B9C4216DCA3F5D0039C4227DC32
:1006E000F0EE007ABFEE007AA0EE277A002230EE1C
:1006F000270AC7EE007A93E776EE876AE6EEE77A96
:10070000B0EE670A38BD204B9C420BDCF7EE087A4E
:10071000B7EE007AA0EE277A022230EE670AC0EE2A
:10072000077A7DE7BFEE007AC7EE007A032277E70B
:10073000F7EE007A30EE677A30EE270A0122C7EE34
:10074000007A6DE7DB0FC93FDB0FC9BFFFFFDF3E5C
:10075000D769853C59DA4B3D356B883D6E2EBA3DE5
:1007600021A215BD6BF16EBD95879DBD2549123E39
:10077000388EE3BDABAAAA3ECDCC4CBEA830010852
:10078000CAF24971FFFF973FFFFF1B4010EE103A7E
:1007900023F0004300EE103A704700BF9FED010ABE
:1007A000704700BF0000C07F81F0004102E000BF41
:1007B00083F0004330B54FEA41044FEA430594EA21
:1007C000050F08BF90EA020F1FBF54EA000C55EA5C
:1007D000020C7FEA645C7FEA655C00F0E2804FEA2D
:1007E0005454D4EB5555B8BF6D420CDD2C4480EA0F
:1007F000020281EA030382EA000083EA010180EA3F
:10080000020281EA0303362D88BF30BD11F0004F8C
:100810004FEA01314FF4801C4CEA113102D04042C2
:1008200061EB410113F0004F4FEA03334CEA1333FD
:1008300002D0524263EB430394EA050F00F0A78015
:10084000A4F10104D5F1200E0DDB02FA0EFC22FA10
:1008500005F2801841F1000103FA0EF2801843FA04
:1008600005F359410EE0A5F120050EF1200E012AF5
:1008700003FA0EFC28BF4CF0020C43FA05F3C01833
:1008800051EBE37101F0004507D54FF0000EDCF1AC
:10089000000C7EEB00006EEB0101B1F5801F1BD355
:1008A000B1F5001F0CD349085FEA30004FEA3C0C59
:1008B00004F101044FEA445212F5800F80F09A804F
:1008C000BCF1004F08BF5FEA500C50F1000041EB53
:1008D000045141EA050130BD5FEA4C0C404141EB57
:1008E0000101013C28BFB1F5801FE9D291F0000F52
:1008F00004BF01460020B1FA81F308BF2033A3F101
:100900000B03B3F120020CDA0C3208DD02F1140CF7
:10091000C2F10C0201FA0CF021FA02F10CE002F132
:100920001402D8BFC2F1200C01FA02F120FA0CFC2B
:10093000DCBF41EA0C019040E41AA2BF01EB045174
:10094000294330BD6FEA04041F3C1CDA0C340EDC72
:1009500004F11404C4F1200220FA04F001FA02F3B5
:1009600040EA030021FA04F345EA030130BDC4F173
:100970000C04C4F1200220FA02F001FA04F340EA68
:100980000300294630BD21FA04F0294630BD94F019
:10099000000F83F4801306BF81F480110134013D00
:1009A0004EE77FEA645C18BF7FEA655C29D094EA71
:1009B000050F08BF90EA020F05D054EA000C04BFEF
:1009C0001946104630BD91EA030F1EBF00210020DA
:1009D00030BD5FEA545C05D14000494128BF41F079
:1009E000004130BD14F580043CBF01F5801130BDDD
:1009F00001F0004545F0FE4141F470014FF0000068
:100A000030BD7FEA645C1ABF194610467FEA655C18
:100A10001CBF0B46024650EA013406BF52EA0335BA
:100A200091EA030F41F4002130BD00BF90F0000FA8
:100A300004BF0021704730B54FF4806404F13204E4
:100A40004FF000054FF0000150E700BF90F0000F9D
:100A500004BF0021704730B54FF4806404F13204C4
:100A600010F0004548BF40424FF000013EE700BF94
:100A700042004FEAE2014FEA31014FEA02701FBF24
:100A800012F07F4393F07F4F81F06051704732F056
:100A90007F4208BF704793F07F4F04BF41F40021AD
:100AA000704730B54FF4607401F0004521F000410B
:100AB0001CE700BF50EA010208BF704730B54FF095
:100AC00000050AE050EA010208BF704730B511F096
:100AD000004502D5404261EB41014FF4806404F1CE
:100AE00032045FEA915C3FF4D8AE4FF003025FEA54
:100AF000DC0C18BF03325FEADC0C18BF033202EBD8
:100B0000DC02C2F1200300FA03FC20FA02F001FA31
:100B100003FE40EA0E0021FA02F11444BDE600BFD4
:100B200070B54FF0FF0C4CF4E06C1CEA11541DBF83
:100B30001CEA135594EA0C0F95EA0C0F00F0DEF84E
:100B40002C4481EA030621EA4C5123EA4C5350EA33
:100B5000013518BF52EA033541F4801143F4801384
:100B600038D0A0FB02CE4FF00005E1FB02E506F015
:100B70000042E0FB03E54FF00006E1FB03569CF06A
:100B8000000F18BF4EF0010EA4F1FF04B6F5007F70
:100B900064F5407404D25FEA4E0E6D4146EB0606E2
:100BA00042EAC62141EA55514FEAC52040EA5E506B
:100BB0004FEACE2EB4F1FD0C88BFBCF5E06F1ED815
:100BC000BEF1004F08BF5FEA500E50F1000041EB4C
:100BD000045170BD06F0004646EA010140EA0200F9
:100BE00081EA0301B4EB5C04C2BFD4EB0C0541EA1B
:100BF000045170BD41F480114FF0000E013C00F330
:100C0000AB8014F1360FDEBF002001F0004170BD53
:100C1000C4F10004203C35DA0C341BDC04F114046C
:100C2000C4F1200500FA05F320FA04F001FA05F2F8
:100C300040EA020001F0004221F0004110EBD370C5
:100C400021FA04F642EB06015EEA430E08BF20EAF1
:100C5000D37070BDC4F10C04C4F1200500FA04F394
:100C600020FA05F001FA04F240EA020001F0004126
:100C700010EBD37041F100015EEA430E08BF20EA99
:100C8000D37070BDC4F1200500FA05F24EEA020EE1
:100C900020FA04F301FA05F243EA020321FA04F010
:100CA00001F0004121FA04F220EA020000EBD370C7
:100CB0005EEA430E08BF20EAD37070BD94F0000FC7
:100CC0000FD101F00046400041EB010111F4801FFB
:100CD00008BF013CF7D041EA060195F0000F18BFAC
:100CE000704703F00046520043EB030313F4801FE8
:100CF00008BF013DF7D043EA0603704794EA0C0FA2
:100D00000CEA135518BF95EA0C0F0CD050EA4106B7
:100D100018BF52EA4306D1D181EA030101F0004134
:100D20004FF0000070BD50EA410606BF104619465C
:100D300052EA430619D094EA0C0F02D150EA013668
:100D400013D195EA0C0F05D152EA03361CBF1046A9
:100D500019460AD181EA030101F0004141F0FE4148
:100D600041F470014FF0000070BD41F0FE4141F4CC
:100D7000780170BD70B54FF0FF0C4CF4E06C1CEACC
:100D800011541DBF1CEA135594EA0C0F95EA0C0F81
:100D900000F0A7F8A4EB050481EA030E52EA03353C
:100DA0004FEA013100F088804FEA03334FF080555D
:100DB00045EA131343EA12634FEA022245EA11158A
:100DC00045EA10654FEA00260EF000419D4208BF3B
:100DD000964244F1FD0404F5407402D25B084FEAE8
:100DE0003202B61A65EB03055B084FEA32024FF494
:100DF00080104FF4002CB6EB020E75EB030E22BFF1
:100E0000B61A754640EA0C005B084FEA3202B6EBB0
:100E1000020E75EB030E22BFB61A754640EA5C005F
:100E20005B084FEA3202B6EB020E75EB030E22BFEF
:100E3000B61A754640EA9C005B084FEA3202B6EBF0
:100E4000020E75EB030E22BFB61A754640EADC00AF
:100E500055EA060E18D04FEA051545EA16754FEA11
:100E600006164FEAC30343EA52734FEAC2025FEA2F
:100E70001C1CC0D111F4801F0BD141EA00014FF0BE
:100E800000004FF0004CB6E711F4801F04BF01438F
:100E90000020B4F1FD0C88BFBCF5E06F3FF6AFAEAB
:100EA000B5EB030C04BFB6EB020C5FEA500C50F13B
:100EB000000041EB045170BD0EF0004E4EEA1131BE
:100EC00014EB5C04C2BFD4EB0C0541EA045170BDC5
:100ED00041F480114FF0000E013C90E645EA060E09
:100EE0008DE60CEA135594EA0C0F08BF95EA0C0F37
:100EF0003FF43BAF94EA0C0F0AD150EA01347FF47F
:100F000034AF95EA0C0F7FF425AF104619462CE755
:100F100095EA0C0F06D152EA03353FF4FDAE1046B8
:100F2000194622E750EA410618BF52EA43067FF409
:100F3000C5AE50EA41047FF40DAF52EA43057FF499
:100F4000EBAE12E74FF0FF3C06E000BF4FF0010CA4
:100F500002E000BF4FF0010C4DF804CD4FEA410C08
:100F60007FEA6C5C4FEA430C18BF7FEA6C5C1BD0D5
:100F700001B050EA410C0CBF52EA430C91EA030F56
:100F800002BF90EA020F0020704710F1000F91EAB3
:100F9000030F58BF994208BF90422CBFD8176FEA81
:100FA000E37040F0010070474FEA410C7FEA6C5C4F
:100FB00002D150EA013C07D14FEA430C7FEA6C5C56
:100FC000D6D152EA033CD3D05DF8040B704700BF82
:100FD0008446104662468C461946634600E000BFD0
:100FE00001B5FFF7B7FF002848BF10F1000F01BDA2
:100FF0004DF808EDFFF7F4FF0CBF012000205DF86D
:1010000008FB00BF4DF808EDFFF7EAFF34BF0120F1
:1010100000205DF808FB00BF4DF808EDFFF7E0FF8A
:1010200094BF012000205DF808FB00BF4DF808EDDB
:10103000FFF7CEFF94BF012000205DF808FB00BF42
:101040004DF808EDFFF7C4FF34BF012000205DF824
:1010500008FB00BF4FEA4102B2F1E04324BFB3F501
:10106000001CDCF1FE5C0DD901F0004C4FEAC0021F
:101070004CEA5070B2F1004F40EB830008BF20F003
:101080000100704711F0804F21D113F13872BCBFBD
:1010900001F00040704741F480114FEA5252C2F112
:1010A0001802C2F1200C10FA0CF320FA02F018BF5B
:1010B00040F001004FEAC1234FEAD32303FA0CFCAE
:1010C00040EA0C0023FA02F34FEA4303CCE77FEA3D
:1010D000625307D150EA01331EBF4FF0FE4040F487
:1010E0004000704701F0004040F0FE4040F4000036
:1010F000704700BF53B94AB9002908BF00281CBF78
:101100004FF0FF314FF0FF3000F074B9ADF1080C33
:101110006DE904CE00F006F8DDF804E0DDE9022315
:1011200004B070472DE9F047089D04468E46002B19
:101130004DD18A42944669D9B2FA82F252B101FA8B
:1011400002F3C2F1200120FA01F10CFA02FC41EA9B
:10115000030E94404FEA1C48210CBEFBF8F61FFA20
:101160008CF708FB16E341EA034306FB07F19942BB
:101170000AD91CEB030306F1FF3080F01F8199426E
:1011800040F21C81023E63445B1AA4B2B3FBF8F048
:1011900008FB103344EA034400FB07F7A7420AD9CF
:1011A0001CEB040400F1FF3380F00A81A74240F2F7
:1011B00007816444023840EA0640E41B00261DB162
:1011C000D4400023C5E900433146BDE8F0878B4297
:1011D00009D9002D00F0EF800026C5E90001304656
:1011E0003146BDE8F087B3FA83F6002E4AD18B4230
:1011F00002D3824200F2F980841A61EB03030120DA
:101200009E46002DE0D0C5E9004EDDE702B9FFDEC5
:10121000B2FA82F2002A40F09280A1EB0C014FEA70
:101220001C471FFA8CFE0126200CB1FBF7F307FBCD
:10123000131140EA01410EFB03F0884208D91CEB70
:10124000010103F1FF3802D2884200F2CB8043460D
:10125000091AA4B2B1FBF7F007FB101144EA0144EC
:101260000EFB00FEA64508D91CEB040400F1FF317B
:1012700002D2A64500F2BB800846A4EB0E0440EA69
:1012800003409CE7C6F12007B34022FA07FC4CEA72
:10129000030C20FA07F401FA06F31C43F9404FEA65
:1012A0001C4900FA06F3B1FBF9F8200C1FFA8CFE7A
:1012B00009FB181140EA014108FB0EF0884202FACE
:1012C00006F20BD91CEB010108F1FF3A80F088808F
:1012D000884240F28580A8F102086144091AA4B24C
:1012E000B1FBF9F009FB101144EA014100FB0EFECD
:1012F0008E4508D91CEB010100F1FF346CD28E45FC
:101300006AD90238614440EA0840A0FB0294A1EB8C
:101310000E01A142C846A64656D353D05DB1B3EBE9
:10132000080261EB0E0101FA07F722FA06F3F14019
:101330001F43C5E9007100263146BDE8F087C2F1C0
:101340002003D8400CFA02FC21FA03F39140014338
:101350004FEA1C471FFA8CFEB3FBF7F007FB103671
:101360000B0C43EA064300FB0EF69E4204FA02F41D
:1013700008D91CEB030300F1FF382FD29E422DD970
:10138000023863449B1B89B2B3FBF7F607FB1633A5
:1013900041EA034106FB0EF38B4208D91CEB010125
:1013A00006F1FF3816D28B4214D9023E6144C91AA5
:1013B00046EA004638E72E46284605E70646E3E6B5
:1013C0001846F8E64B45A9D2B9EB020864EB0C0EBF
:1013D0000138A3E74646EAE7204694E74046D1E7CE
:1013E000D0467BE7023B614432E7304609E764447C
:1013F000023842E7704700BF08B5062000F08CFABB
:10140000012008F097F900BF014B1868704700BF32
:101410000400002070B50D4E0D4D761BB61006D0A1
:10142000002455F8043B01349847A642F9D1094EEF
:10143000094D761B11F038FAB61006D0002455F885
:10144000043B01349847A642F9D170BDFC33010832
:10145000FC33010830340108FC330108024B01461B
:10146000186800F059B900BF04000020024B014683
:10147000186800F0EFB800BF04000020844641EA7D
:10148000000313F003036DD1403A41D351F8043BFC
:1014900040F8043B51F8043B40F8043B51F8043B4E
:1014A00040F8043B51F8043B40F8043B51F8043B3E
:1014B00040F8043B51F8043B40F8043B51F8043B2E
:1014C00040F8043B51F8043B40F8043B51F8043B1E
:1014D00040F8043B51F8043B40F8043B51F8043B0E
:1014E00040F8043B51F8043B40F8043B51F8043BFE
:1014F00040F8043B51F8043B40F8043B51F8043BEE
:1015000040F8043B51F8043B40F8043B403ABDD25C
:10151000303211D351F8043B40F8043B51F8043BFE
:1015200040F8043B51F8043B40F8043B51F8043BBD
:1015300040F8043B103AEDD20C3205D351F8043B8D
:1015400040F8043B043AF9D2043208D0D2071CBF59
:1015500011F8013B00F8013B01D30B880380604682
:10156000704700BF082A13D38B078DD010F00303F8
:101570008AD0C3F10403D21ADB071CBF11F8013B68
:1015800000F8013B80D331F8023B20F8023B7BE7B7
:10159000043AD9D3013A11F8013B00F8013BF9D2E2
:1015A0000B7803704B7843708B788370604670477C
:1015B000830730B548D0541E002A3FD0CAB2034634
:1015C00001E0013C3AD303F8012B9D07F9D1032C2C
:1015D0002DD9CDB245EA05250F2C45EA054536D96A
:1015E000A4F1100222F00F0C03F1200EE6444FEAA2
:1015F000121C03F1100242E9045542E9025510326F
:101600007245F8D10CF1010214F00C0F03EB021239
:1016100004F00F0C13D0ACF1040323F003030433E4
:10162000134442F8045B9342FBD10CF003042CB149
:10163000CAB21C4403F8012B9C42FBD130BD644666
:101640001346002CF4D1F9E703461446BFE71A46C7
:10165000A446E0E7002958D030B551F8043C83B0E7
:10166000002BA1F10404B8BFE418019000F048FA7F
:10167000284A0198136833B1A3420DD9216804EBBD
:10168000010C63452FD06360146003B0BDE83040A7
:1016900000F038BAA34210D81A465B68002BF9D183
:1016A000116802EB010C644519D02FD363605460BC
:1016B00003B0BDE8304000F025BA116802EB010C20
:1016C000A44516D022D8216804EB010C6345EDD166
:1016D0001D685B682944C4E900135460D5E723689A
:1016E00019441160D1E71D685B682944C4E90013FF
:1016F000CAE7246821445418A3421160C5D1D3E934
:1017000000432144C2E90013BFE770470C23036084
:10171000BBE700BFA4000020F8B5CD1C25F00305F1
:1017200008350C2D38BF0C25002D064623DBA942B9
:1017300021D8254F00F0E4F93A6822B3144603E0BB
:1017400063682246FBB11C4623685B1BF8D40B2B55
:1017500015D8636894420CBF3B605360304600F07C
:10176000D1F904F10B00231D20F00700C21A01D0AB
:101770001B1AA350F8BD0C2333600020F8BD236072
:101780001C442560EAE77968C9B12946304600F073
:101790001DF8431C0CD0C41C24F00304A04205D047
:1017A000211A304600F012F8013001D02560D5E74B
:1017B0000C233046336000F0A5F90020F8BD304618
:1017C00000F004F87860E0E7A400002038B5074D89
:1017D0000022044608462A6007F05EFF431C00D042
:1017E00038BD2B68002BFBD0236038BDAC00002037
:1017F00038B5446C0CB1002038BD80210546FFF798
:101800008BFF0246686430B1031F7C3243F8044FFB
:101810009342FBD1EFE74FF0FF3038BD1F29F8B5F9
:10182000054608D8466C0C4617464EB156F82400BB
:1018300046F82470F8BD162303604FF0FF30F8BD62
:101840008021FFF769FF0646686440B1031F00F17D
:101850007C05002143F8041F9D42FBD1E6E74FF0D1
:10186000FF30F8BD1F2938B5054620D8426C0C461C
:101870006AB152F8213053B1012B16D0591C10D047
:101880000025204642F824509847284638BD28466F
:1018900000F0F8F8224601462846BDE8384000F03E
:1018A000DBB816230360012038BD002038BD1623A5
:1018B00003604FF0FF3038BD1F292AD8426C38B57D
:1018C0000C46054682B152F8243002EB84024BB13B
:1018D000591C19D0012B15D00025204615609847BA
:1018E000284638BD012038BD8021FFF715FF02468C
:1018F000686458B1031F00217C3043F8041F9842EC
:10190000FBD1E0E7032038BD022038BD4FF0FF30A7
:1019100038BD4FF0FF30704738B5144B1F281D6895
:101920001FD86A6C044662B152F820304BB1012BCB
:1019300015D0591C0FD0002542F820509847284652
:1019400038BD284600F09EF8224601462846BDE8EC
:10195000384000F081B816232B60012038BD0020EC
:1019600038BD16232B604FF0FF3038BD0400002037
:10197000124B1F2870B51E6808D80D46716C0446BE
:1019800049B151F8240041F8245070BD162333604A
:101990004FF0FF3070BD80213046FFF7BDFE01469D
:1019A000706440B1031F00F17C0C002243F8042F47
:1019B0006345FBD1E5E74FF0FF3070BD0400002028
:1019C00038B50B4B1D686C6C0CB1002038BD802104
:1019D0002846FFF7A1FE686438B1031F00F17C02BE
:1019E00043F8044F9342FBD1EFE74FF0FF3038BD8F
:1019F0000400002038B5174B1F281D6826D86A6CD4
:101A0000044682B152F8243002EB84024BB1591CD7
:101A10001AD0012B16D0002520461560984728467D
:101A200038BD012038BD80212846FFF775FE0246EB
:101A3000686458B1031F00217C3043F8041F8342BF
:101A4000FBD1DFE7032038BD022038BD4FF0FF3067
:101A500038BD00BF0400002070B50C46084D034699
:101A60000026204611461C462E6007F053FE431CFC
:101A700000D070BD2B68002BFBD0236070BD00BF71
:101A8000AC00002007F03EBE0CB410B59CB01EABFD
:101A90006FF00044CDE906140291084953F8042B75
:101AA000059102A90193049400F00CF9029B002215
:101AB0001A701CB0BDE8104002B070470802FFFF6A
:101AC0000EB410B59DB06FF000411FABCDE906011B
:101AD0000491094953F8042B0290084C08680193BB
:101AE00002A9059400F0EEF8029B00221A701DB0C6
:101AF000BDE8104003B07047040000200802FFFF5B
:101B0000704700BF704700BF2DE9F0478F689F42C4
:101B10000C461D46164638D88246888910F4906FC8
:101B20000ED108683D462A46314600F029FCA268DD
:101B30002368D21B2B44A26023600020BDE8F087FD
:101B40004B69096903EB4308236808EBD878A3EBDA
:101B500001096B1C4FEA68084B444345424684BF69
:101B600098464246430513D511465046FFF7D4FD2B
:101B7000074608B321694A46FFF780FCA38923F48E
:101B8000906343F08003A38107E008681F46CAE71B
:101B9000504600F071FC074650B107EB0900A8EB76
:101BA00009032761C4F81480A36020602F46BAE7B8
:101BB00021695046FFF74EFD0C23CAF80030A38977
:101BC00043F040034FF0FF30A381B7E72DE9F04F1A
:101BD000936883B09146002B6ED017688D6880465D
:101BE0000C460868083744E0A38913F4906F2ED0A0
:101BF000D4E90415A0EB010A05EB450505EBD57505
:101C00000AEB06006D100130A8422A4684BF054643
:101C10002A465B0537D511464046FFF77DFD002873
:101C20003BD0524621690190FFF728FCA289019B15
:101C300022F4906242F08002A281A5EB0A0203EB3B
:101C40000A006561A260236120603546B2465946AC
:101C5000524600F095FBA068D9F808102368451B90
:101C60008E1B03EB0A00A5602060C9F808601EB354
:101C7000083757E902B6002EFAD0B542AA46B3D9C2
:101C80003546B246E3E7404600F0F6FB034600283F
:101C9000D3D121694046FFF7DDFC0C23C8F80030A2
:101CA000A389002243F040034FF0FF30A381C9E92C
:101CB000012203B0BDE8F08F0020C9F8040003B092
:101CC000BDE8F08F2DE9F04F92468A8915069DB048
:101CD000884681461C4603D50A69002A00F0EF8039
:101CE000002209929AF800307E4D039420228DF84C
:101CF000292030228DF82A200126002B72D054464C
:101D000003E014F8013F002B76D0252BF9D1B4EB7A
:101D10000A0B74D12278002A64D000234FF0FF32DE
:101D2000CDE90523049307938DF853301A930134BA
:101D300004E0049A06FA03F313430493A24605222F
:101D400014F8011B284600F0CBFA431B0028F0D101
:101D5000049BD80644BF20228DF8532019079AF817
:101D6000001044BF2B228DF853202A2954D1039A06
:101D700011680432002903927CDB07919AF8011064
:101D80000AF1010A2E2959D0574C0322204600F0AF
:101D9000A7FA40B1049B001B402404FA00F003435F
:101DA00004930AF1010A1AF8011B50488DF8281013
:101DB000062200F095FA002862D04D4B002B52D03D
:101DC00003AA00924B4B424604A94846AFF3008059
:101DD00007467A1C06D0099B3B4409939AF80030C9
:101DE000002B8CD1B8F80C305B0654BF09984FF02B
:101DF000FF301DB0BDE8F08FB4EB0A0BF2D05B46AC
:101E0000524641464846FFF77FFE0130EAD0099B23
:101E100022785B4409937EE7A1F13002092AB1D808
:101E2000079B1AF8011F03EB830302EB4303A1F1A5
:101E30003002092AF5D92E290793A5D19AF8011065
:101E40002A2927D1039B9AF802101A6805920433B5
:101E5000002A0AF102000393B8BF4FF0FF33824615
:101E6000B8BF059390E7039B073323F007030833BC
:101E70000393B0E7494243F00203079104937DE7DF
:101E800003AA00921B4B424604A9484600F0CAF838
:101E900007469EE7A1F130020023092A05930AF1C3
:101EA000010A3FF671AF1AF8011F03EB830302EB3F
:101EB0004303A1F13002092AF5D9059364E74021D3
:101EC000FFF72AFCC8F80000C8F8100018B140223B
:101ED000C8F8142004E70C23C9F800304FF0FF3095
:101EE00087E700BFB8330108C0330108C4330108D5
:101EF00000000000091B00082DE9F84F92461F461C
:101F00000A698B68DDF828909A42B8BF1A46CAF869
:101F1000002091F843300C46064613B10132CAF84E
:101F20000020226891065DD5DAF800300233CAF845
:101F30000030226812F0060F11461ED1E168CB1A5C
:101F4000002BD8BF114618DD04F1190B4FF0000823
:101F500005E0E568DAF80030ED1A45450CDD0123AF
:101F60005A4639463046C847013008F10108F0D1D9
:101F70004FF0FF30BDE8F88F216894F84330003B04
:101F800018BF01238A060AD5E1185A1C302081F8AF
:101F90004300224494F8451082F84310023304F1C0
:101FA000430239463046C8470130E1D0236803F088
:101FB0000603042B1DD0A3682269934225DD4FF050
:101FC00000089B1A98441A34002501E045451CDAA4
:101FD0000123224639463046C847013005F1010544
:101FE000F4D1C5E712F0060F12D0003B18BF012351
:101FF000D5E7DAF80030E1682269C91AA36893428C
:1020000021EAE178DDDC0029DDDC0020BDE8F88F85
:10201000E168DAF80030CB1A002BD8BF114693DC08
:10202000ABE700BF2DE9F0470C4684B09046227E16
:102030000C990746994604F14300002A33D0A2F1D7
:102040005803DDB2202D67D8202B65D8DFE813F0C8
:10205000DE006400640064006400640064006400E6
:10206000640064006400A3006E0064006400640007
:1020700064006E00640064006400640021007F005E
:10208000C00064006400AE0064007F00640064006F
:10209000E50023681A0640F104810B6862691D1D82
:1020A0000D601B681A60002382462361CDF8009002
:1020B000434603AA21463846FFF71EFF013020D0D1
:1020C0002369524641463846C847013019D0236833
:1020D000E068039E9B0719D5831B002B16DD04F1D6
:1020E000190A002504E0E068039E831BAB420DDD66
:1020F0000123524641463846C847013005F10105E3
:10210000F1D14FF0FF3004B0BDE8F087B042B8BF66
:10211000304604B0BDE8F087012384F842202361F3
:1021200004F1420A002384F84330BFE723681A060B
:1021300002D45E0600F1C1800D682A6804350D6086
:102140001546002A6BDBDFF884C10A2610E02368FD
:102150001D0640F19C800B681D1D0D601D68DFF899
:102160006CC16F2A0CBF08260A26002384F843306E
:102170006268A260002A7FDB236823F004032360E7
:10218000002D5BD1002A79D18246082E65D0A0EBC4
:102190000A0020618AE70B680122186804330B608B
:1021A00004F1420A84F842002261BBE70B686268CE
:1021B000181D0860D3F800A00021504600F090F8E8
:1021C000002800F08180A0EB0A0060602061A9E790
:1021D000236843F0200323607822DFF8F4C084F8FA
:1021E00045200A68151D0D601D0643D4590641D5CA
:1021F0001588DE0744BF43F020032360002D44D13F
:10220000236823F0200323601026AEE7582384F8C8
:102210004530DFF8B8C02368E3E72368DCE762688D
:10222000A2602D21002AC5F1000584F8431002DBCD
:1022300023F004032360DFF894C00A268246B5FB2E
:10224000F6F306FB13512A461CF801100AF8011D8B
:10225000B2421D46F3D2082E99D12368D90796D5EC
:10226000626823699A4292DC30230AF8013C0AF141
:10227000FF3A8CE71568BCE7002DDFD19CF80030F1
:1022800084F8423004F1420A7FE710266DE713F02C
:10229000400F0B6803F104050D600CBF1D681D881D
:1022A0005DE713F0400F0B68626903F104050D60F0
:1022B0001B6814BF1A801A60F5E60A68B2F900506C
:1022C00004320A602A463CE760687FE7CC330108A5
:1022D000E0330108000000000000000000000000E2
:1022E00001F0FF01102A2BDB10F0070F08D010F8C7
:1022F000013B013A8B422DD010F0070F42B3F6D1CB
:10230000F0B441EA012141EA014122F007047FF0E3
:1023100000070023F0E80256083C85EA010586EA3A
:10232000010685FA47F5A3FA87F586FA47F6A5FA76
:1023300087F68EB9EED1F0BC01F0FF0102F0070282
:1023400032B110F8013B013A83EA010313B1F8D12D
:102350000020704701387047002D06BF354603380E
:10236000073815F0010F07D1013015F4807F02BF47
:10237000013015F4C03F0130F0BC0138704700BF98
:1023800088420DD98B1883420AD900EB020CBAB1EE
:10239000624613F801CD02F801CD9942F9D1704798
:1023A0000F2A0ED8034602F1FF3C4AB10CF1010C92
:1023B000013B8C4411F8012B03F8012F6145F9D141
:1023C000704740EA01039B0750D1A2F1100370B59A
:1023D00001F1200C23F00F0501F1100E00F11004A3
:1023E000AC441B095EF8105C44F8105C5EF80C5CB1
:1023F00044F80C5C5EF8085C44F8085C5EF8045C29
:1024000044F8045C0EF1100EE64504F11004E9D125
:10241000013312F00C0F01EB031102F00F0400EB7B
:10242000031327D0043C24F003064FEA940C1E4407
:102430001C1F8E465EF8045B44F8045FB442F9D179
:102440000CF1010402F0030203EB840301EB8401AD
:1024500002F1FF3C4AB10CF1010C013B8C4411F834
:10246000012B03F8012F6145F9D170BD02F1FF3C4A
:1024700003469BE72246EBE7F8B51446F9B1CAB12B
:1024800006460D4600F020F8A04202D32F463846FB
:10249000F8BD21463046FFF73FF907460028F6D041
:1024A00022462946FEF7EAFF30462946FFF7D2F8D2
:1024B0003846F8BD2746FFF7CDF83846F8BDBDE8E9
:1024C000F8401146FFF728B951F8040C0028A0F194
:1024D0000400BCBF0B58C018704700BF80B400AFE9
:1024E000064BD3F88830054A43F47003C2F88830AD
:1024F00000BFBD465DF8047B704700BF00ED00E003
:1025000080B584B000AF78607B68002B01D10123D7
:10251000EDE07B6893F82030DBB2002B02D17868C5
:1025200005F0A8FE7B681B681A687B681B6842F090
:1025300001021A6002F0FCF9F86012E002F0F8F90A
:102540000246FB68D31A0A2B0BD97B685B6A43F4FB
:1025500000327B685A627B68052283F820200123C1
:10256000C5E07B681B685B6803F00103002BE5D0C6
:102570007B681B681A687B681B6822F002021A607D
:1025800002F0D6F9F86012E002F0D2F90246FB68D8
:10259000D31A0A2B0BD97B685B6A43F400327B6841
:1025A0005A627B68052283F8202001239FE07B6824
:1025B0001B685B6803F00203002BE5D17B681B7E80
:1025C000012B08D17B681B681A687B681B6842F086
:1025D00080021A6007E07B681B681A687B681B68CA
:1025E00022F080021A607B685B7E012B08D17B6839
:1025F0001B681A687B681B6842F040021A6007E09B
:102600007B681B681A687B681B6822F040021A60AE
:102610007B689B7E012B08D17B681B681A687B68EE
:102620001B6842F020021A6007E07B681B681A688A
:102630007B681B6822F020021A607B68DB7E012B1E
:1026400008D17B681B681A687B681B6822F010023F
:102650001A6007E07B681B681A687B681B6842F099
:1026600010021A607B681B7F012B08D17B681B68F6
:102670001A687B681B6842F008021A6007E07B68F2
:102680001B681A687B681B6822F008021A607B6866
:102690005B7F012B08D17B681B681A687B681B680D
:1026A00042F004021A6007E07B681B681A687B68C6
:1026B0001B6822F004021A607B689A687B68DB68FA
:1026C0001A437B681B691A437B685B6942EA030112
:1026D0007B685B685A1E7B681B680A43DA617B680B
:1026E00000225A627B68012283F8202000231846CA
:1026F0001037BD4680BD000080B487B000AF786061
:1027000039607B6893F82030FB75FB7D012B03D08B
:10271000FB7D022B40F0BE80654B3B613B69D3F8EB
:10272000003243F001023B69C3F800223B69D3F851
:10273000003223F47C523B69C3F800223B69D3F892
:1027400000223B685B6A1B021A433B69C3F8002204
:102750003B685B6903F01F03012202FA03F3FB608D
:102760003B69D3F81C22FB68DB431A403B69C3F882
:102770001C223B68DB69002B23D13B69D3F80C2278
:10278000FB68DB431A403B69C3F80C223B68DB68FB
:1027900019043B685B689BB23A68526919433B690C
:1027A000483243F832103B689B6819043B681B6849
:1027B0009AB23B685B690A4339694833DB000B44D2
:1027C0005A603B68DB69012B22D13B69D3F80C22AC
:1027D000FB681A433B69C3F80C223B681B68190469
:1027E0003B685B689BB23A68526919433B6948325F
:1027F00043F832103B689B6819043B68DB689AB267
:102800003B685B690A4339694833DB000B445A6013
:102810003B689B69002B09D13B69D3F80422FB6814
:10282000DB431A403B69C3F8042207E03B69D3F855
:102830000422FB681A433B69C3F804223B681B6906
:10284000002B09D13B69D3F81422FB68DB431A4003
:102850003B69C3F8142207E03B69D3F81422FB68F4
:102860001A433B69C3F814223B681B6A012B07D14A
:102870003B69D3F81C22FB681A433B69C3F81C224E
:102880003B69D3F8003223F001023B69C3F8002210
:10289000002306E07B685B6A43F480227B685A620F
:1028A000012318461C37BD465DF8047B704700BF06
:1028B0000064004080B584B000AF78607B6893F816
:1028C0002030DBB2012B2ED17B68022283F820203E
:1028D0007B681B681A687B681B6822F001021A601B
:1028E00002F026F8F86012E002F022F80246FB68D7
:1028F000D31A0A2B0BD97B685B6A43F400327B68DE
:102900005A627B68052283F82020012312E07B684D
:102910001B685B6803F00103002BE5D17B68002294
:102920005A62002306E07B685B6A43F400227B68FE
:102930005A62012318461037BD4680BD80B489B065
:1029400000AFF860B9607A603B60FB6893F82030B4
:10295000FB77FB681B689B68BB61FB7F012B03D087
:10296000FB7F022B40F0AD80BB6903F08063002B3E
:102970000AD1BB6903F00063002B05D1BB6903F0EA
:102980008053002B00F09580BB691B0E03F00303FE
:102990007B6101227B699A403B681A60BB689B6837
:1029A000002B0DD1BB681B685A05BB68DB68F96852
:1029B00009681A437B6918331B010B441A600FE046
:1029C000BB685B68DA00BB689B681A43BB68DB685E
:1029D000F96809681A437B6918331B010B441A60B4
:1029E000FB681968BB681A697B6918331B010B44C3
:1029F00004331A60BB681B7D012B11D1FB681A6878
:102A00007B6918331B01134404331B68FA6811688F
:102A100043F480727B6918331B010B4404331A6042
:102A20007B6807331B781A067B6806331B781B0408
:102A30001A437B6805331B781B0213437A68043200
:102A400012781046FA68116843EA00027B691B019C
:102A50000B4403F5C6731A607B6803331B781A06B0
:102A60007B6802331B781B041A437B6801331B7895
:102A70001B0213437A6812781046FA68116843EA19
:102A800000027B691B010B4403F5C4731A60FB68E9
:102A90001A687B6918331B0113441B68FA681168B4
:102AA00043F001027B6918331B010B441A600023B9
:102AB0000EE0FB685B6A43F40012FB685A62012374
:102AC00006E0FB685B6A43F48022FB685A620123DC
:102AD00018462437BD465DF8047B704780B485B046
:102AE00000AF78600023FB607B6893F82030FB72B6
:102AF000FB7A012B02D0FB7A022B1DD17B681B686D
:102B00009B6803F08063002B02D0FB680133FB60FD
:102B10007B681B689B6803F00063002B02D0FB6896
:102B20000133FB607B681B689B6803F08053002BBC
:102B300002D0FB680133FB60FB6818461437BD46C2
:102B40005DF8047B704780B487B000AFF860B9606F
:102B50007A603B60FB6893F82030FB75FB7D012BAE
:102B600003D0FB7D022B40F00381BB68002B0ED10C
:102B7000FB681B68DB6803F00303002B16D1FB68BE
:102B80005B6A43F40012FB685A620123F7E0FB68BA
:102B90001B681B6903F00303002B07D1FB685B6A0A
:102BA00043F40012FB685A620123E8E0FB681A68EC
:102BB000BB681B331B0113441B6803F004027B68D2
:102BC0009A607B689B68002B0CD1FB681A68BB6815
:102BD0001B331B0113441B685B0DC3F30A027B68A4
:102BE0001A600BE0FB681A68BB681B331B011344B7
:102BF0001B68DB0823F060427B685A60FB681A6838
:102C0000BB681B331B0113441B6803F002027B6883
:102C1000DA60FB681A68BB681B331B01134404337A
:102C20001B6803F00803002B03D07B6808221A619D
:102C30000BE0FB681A68BB681B331B0113440433A9
:102C40001B6803F00F027B681A61FB681A68BB6897
:102C50001B331B01134404331B681B0ADAB27B6865
:102C60009A61FB681A68BB681B331B011344043369
:102C70001B681B0C9AB27B685A61FB681A68BB68B8
:102C80001B01134403F5DC731B68DAB23B681A704E
:102C9000FB681A68BB681B01134403F5DC731B68EF
:102CA0001A0A3B680133D2B21A70FB681A68BB6813
:102CB0001B01134403F5DC731B681A0C3B680233D9
:102CC000D2B21A70FB681A68BB681B01134403F583
:102CD000DC731B681A0E3B680333D2B21A70FB68B0
:102CE0001A68BB681B01134403F5DE731A683B685E
:102CF0000433D2B21A70FB681A68BB681B01134414
:102D000003F5DE731B681A0A3B680533D2B21A70EA
:102D1000FB681A68BB681B01134403F5DE731B686C
:102D20001A0C3B680633D2B21A70FB681A68BB688B
:102D30001B01134403F5DE731B681A0E3B6807334F
:102D4000D2B21A70BB68002B08D1FB681B68DA6826
:102D5000FB681B6842F02002DA6007E0FB681B6832
:102D60001A69FB681B6842F020021A61002306E022
:102D7000FB685B6A43F48022FB685A6201231846B1
:102D80001C37BD465DF8047B704780B485B000AF4A
:102D9000786039607B6893F82030FB73FB7B012BF4
:102DA00002D0FB7B022B09D17B681B6859697B68C9
:102DB0001B683A680A435A61002306E07B685B6A35
:102DC00043F480227B685A62012318461437BD46BB
:102DD0005DF8047B704780B58AB000AF786000234F
:102DE0007B627B681B685B693B627B681B685B6816
:102DF000FB617B681B689B68BB617B681B68DB6849
:102E00007B617B681B681B693B617B681B689B69F6
:102E1000FB603B6A03F00103002B7CD0BB6903F02D
:102E20000103002B23D07B681B6801229A60BB69D9
:102E300003F00203002B03D0786800F083F916E05A
:102E4000BB6903F00403002B04D07B6A43F40063E6
:102E50007B620CE0BB6903F00803002B04D07B6AA3
:102E600043F480537B6202E0786800F089F9BB6923
:102E700003F48073002B24D07B681B684FF48072AE
:102E80009A60BB6903F40073002B03D0786800F0EC
:102E900063F916E0BB6903F48063002B04D07B6AFE
:102EA00043F400537B620CE0BB6903F40063002B26
:102EB00004D07B6A43F480437B6202E0786800F0D0
:102EC00069F9BB6903F48033002B24D07B681B684D
:102ED0004FF480329A60BB6903F40033002B03D0B7
:102EE000786800F043F916E0BB6903F48023002BF7
:102EF00004D07B6A43F400437B620CE0BB6903F4BB
:102F00000023002B04D07B6A43F480337B6202E011
:102F1000786800F049F93B6A03F00803002B0CD0F5
:102F20007B6903F01003002B07D07B6A43F4007326
:102F30007B627B681B681022DA603B6A03F0040343
:102F4000002B0BD07B6903F00803002B06D07B68B5
:102F50001B680822DA60786800F030F93B6A03F0F9
:102F60000203002B09D07B681B68DB6803F00303B6
:102F7000002B02D078680FF03EFC3B6A03F0400360
:102F8000002B0CD03B6903F01003002B07D07B6AA9
:102F900043F480637B627B681B6810221A613B6A82
:102FA00003F02003002B0BD03B6903F00803002B38
:102FB00006D07B681B6808221A61786800F008F95F
:102FC0003B6A03F01003002B09D07B681B681B6968
:102FD00003F00303002B02D078680FF017FC3B6A64
:102FE00003F40033002B0BD0FB6903F01003002B1C
:102FF00006D07B681B6810225A60786800F0F2F8EF
:103000003B6A03F48033002B0BD0FB6903F0080309
:10301000002B06D07B681B6808225A60786800F095
:10302000EBF83B6A03F40043002B7BD0FB6903F011
:103030000403002B72D03B6A03F48073002B08D08A
:10304000FB6803F00103002B03D07B6A43F001030C
:103050007B623B6A03F40073002B08D0FB6803F02B
:103060000203002B03D07B6A43F002037B623B6ABE
:1030700003F48063002B08D0FB6803F00403002BEB
:1030800003D07B6A43F004037B623B6A03F4006372
:10309000002B43D0FB6803F07003002B3ED0FB688D
:1030A00003F07003602B2BD0602B2ED8502B22D036
:1030B000502B2AD8402B19D0402B26D8302B10D09B
:1030C000302B22D8102B02D0202B05D01DE07B6A9C
:1030D00043F008037B6219E07B6A43F010037B62D4
:1030E00014E07B6A43F020037B620FE07B6A43F0CD
:1030F00040037B620AE07B6A43F080037B6205E069
:103100007B6A43F480737B6200E000BF7B681B68CE
:103110009A697B681B6822F070029A617B681B6861
:1031200004225A607B6A002B08D07B685A6A7B6A4B
:103130001A437B685A62786800F068F800BF283745
:10314000BD4680BD80B483B000AF786000BF0C374F
:10315000BD465DF8047B704780B483B000AF7860F3
:1031600000BF0C37BD465DF8047B704780B483B068
:1031700000AF786000BF0C37BD465DF8047B704738
:1031800080B483B000AF786000BF0C37BD465DF8F7
:10319000047B704780B483B000AF786000BF0C3709
:1031A000BD465DF8047B704780B483B000AF7860A3
:1031B00000BF0C37BD465DF8047B704780B483B018
:1031C00000AF786000BF0C37BD465DF8047B7047E8
:1031D00080B483B000AF786000BF0C37BD465DF8A7
:1031E000047B704780B483B000AF786000BF0C37B9
:1031F000BD465DF8047B704780B483B000AF786053
:1032000000BF0C37BD465DF8047B704780B483B0C7
:1032100000AF786000BF0C37BD465DF8047B704797
:1032200080B586B000AF78607B68002B01D10123A8
:1032300067E27B681B6803F00103002B75D0884BA5
:103240009B6803F00C03042B0CD0854B9B6803F0A8
:103250000C03082B12D1824B5B6803F48003B3F597
:10326000800F0BD17E4B1B6803F40033002B5BD027
:103270007B685B68002B57D1012342E27B685B6867
:10328000B3F5803F06D1764B1B68754A43F4803313
:1032900013601DE07B685B68B3F5A02F0CD1704B09
:1032A0001B686F4A43F4802313606D4B1B686C4AA4
:1032B00043F4803313600BE0694B1B68684A23F4C6
:1032C00080331360664B1B68654A23F480231360C8
:1032D0007B685B68002B13D001F02AFB386108E0A3
:1032E00001F026FB02463B69D31A642B01D9032364
:1032F00007E25B4B1B6803F40033002BF0D014E0B3
:1033000001F016FB386108E001F012FB02463B6950
:10331000D31A642B01D90323F3E1514B1B6803F447
:103320000033002BF0D100E000BF7B681B6803F086
:103330000203002B63D04A4B9B6803F00C03002B65
:103340000BD0474B9B6803F00C03082B1CD1444B5C
:103350005B6803F48003002B16D1414B1B6803F01C
:103360000203002B05D07B68DB68012B01D0012311
:10337000C7E13B4B1B6823F0F8027B681B69DB004D
:10338000374913430B603AE07B68DB68002B20D0A1
:10339000344B01221A6001F0CBFA386108E001F0E9
:1033A000C7FA02463B69D31A022B01D90323A8E1CD
:1033B0002B4B1B6803F00203002BF0D0284B1B683B
:1033C00023F0F8027B681B69DB00254913430B607F
:1033D00015E0244B00221A6001F0AAFA386108E0D7
:1033E00001F0A6FA02463B69D31A022B01D9032346
:1033F00087E11B4B1B6803F00203002BF0D17B68B5
:103400001B6803F00803002B36D07B685B69002B38
:1034100016D0154B01221A6001F08AFA386108E0D3
:1034200001F086FA02463B69D31A022B01D9032325
:1034300067E10B4B5B6F03F00203002BF0D01BE046
:10344000094B00221A6001F073FA38610EE001F0B6
:103450006FFA02463B69D31A022B07D9032350E1C6
:103460000038024000004742800E4742884B5B6FA5
:1034700003F00203002BEAD17B681B6803F004030E
:10348000002B00F097800023FB75814B1B6C03F031
:103490008053002B0FD10023BB607D4B1B6C7C4AFB
:1034A00043F0805313647A4B1B6C03F08053BB6072
:1034B000BB680123FB75774B1B6803F48073002BFB
:1034C00018D1744B1B68734A43F48073136001F086
:1034D0002FFA386108E001F02BFA02463B69D31A53
:1034E000022B01D903230CE16A4B1B6803F48073A0
:1034F000002BF0D07B689B68012B06D1644B1B6FBF
:10350000634A43F0010313671CE07B689B68052B4B
:103510000CD15F4B1B6F5E4A43F0040313675C4B97
:103520001B6F5B4A43F0010313670BE0584B1B6FA3
:10353000574A23F001031367554B1B6F544A23F07E
:10354000040313677B689B68002B15D001F0F0F92A
:1035500038610AE001F0ECF902463B69D31A41F206
:103560008832934201D90323CBE0494B1B6F03F010
:103570000203002BEED014E001F0DAF938610AE022
:1035800001F0D6F902463B69D31A41F288329342E0
:1035900001D90323B5E03E4B1B6F03F00203002B60
:1035A000EED1FB7D012B05D1394B1B6C384A23F042
:1035B000805313647B689B69002B00F0A180344B1F
:1035C0009B6803F00C03082B5CD07B689B69022B83
:1035D00041D1314B00221A6001F0AAF9386108E0AC
:1035E00001F0A6F902463B69D31A022B01D9032345
:1035F00087E0274B1B6803F00073002BF0D17B683A
:10360000DA697B681B6A1A437B685B6A9B011A4311
:103610007B689B6A5B08013B1B041A437B68DB6A7F
:103620001B061B4913434B601B4B01221A6001F020
:103630007FF9386108E001F07BF902463B69D31A53
:10364000022B01D903235CE0114B1B6803F00073CC
:10365000002BF0D054E0104B00221A6001F068F902
:10366000386108E001F064F902463B69D31A022B85
:1036700001D9032345E0064B1B6803F00073002BC0
:10368000F0D13DE07B689B69012B07D1012338E035
:103690000038024000700040600047421B4B5B68EE
:1036A000FB607B689B69012B28D0FB6803F48002D8
:1036B0007B68DB699A4221D1FB6803F03F027B689B
:1036C0001B6A9A421AD1FA6847F6C07313407A68A7
:1036D000526A9201934211D1FB6803F440327B6835
:1036E0009B6A5B08013B1B049A4207D1FB6803F00D
:1036F00070627B68DB6A1B069A4201D0012300E0FE
:10370000002318461837BD4680BD00BF0038024070
:1037100080B584B000AF786039607B68002B01D140
:103720000123CCE0684B1B6803F007033A689A4218
:103730000CD9654B3A68D2B21A70634B1B6803F020
:1037400007033A689A4201D00123B8E07B681B68FE
:1037500003F00203002B20D07B681B6803F00403F6
:10376000002B05D0594B9B68584A43F4E0539360B3
:103770007B681B6803F00803002B05D0534B9B6844
:10378000524A43F460439360504B9B6823F0F0022D
:103790007B689B684D4913438B607B681B6803F013
:1037A0000103002B44D07B685B68012B07D1474B9A
:1037B0001B6803F40033002B19D101237FE07B68E1
:1037C0005B68022B03D07B685B68032B07D13F4B00
:1037D0001B6803F00073002B09D101236FE03B4B02
:1037E0001B6803F00203002B01D1012367E0374B74
:1037F0009B6823F003027B685B68344913438B604A
:1038000001F096F8F8600AE001F092F80246FB68D1
:10381000D31A41F28832934201D903234FE02B4B54
:103820009B6803F00C027B685B689B009A42EBD1BB
:10383000254B1B6803F007033A689A420CD2224BCF
:103840003A68D2B21A70204B1B6803F007033A683B
:103850009A4201D0012332E07B681B6803F0040325
:10386000002B08D0194B9B6823F4E0527B68DB687F
:10387000164913438B607B681B6803F00803002B19
:1038800009D0124B9B6823F460427B681B69DB0004
:103890000E4913438B6000F021F802460B4B9B68E6
:1038A0001B0903F00F030A49CB5C22FA03F3094A10
:1038B0001360094B1B68184600F0F6FF00231846FA
:1038C0001037BD4680BD00BF003C024000380240BA
:1038D00028310108680000206C0000202DE9B04F5D
:1038E00090B000AF00237B630023FB6300233B63A6
:1038F0000023BB63594B9B6803F00C03082B0DD0CE
:10390000082B00F2A180002B02D0042B03D09BE0F7
:10391000534BBB639BE0534BBB6398E04F4B5B68DF
:1039200003F03F037B634D4B5B6803F48003002B84
:1039300028D04A4B5B689B0900223B627A623B6A53
:10394000C3F308000021474B03FB01F2002300FBF7
:1039500003F31344434AA0FB0212FA620A46BA6216
:10396000FA6A1344FB627B6B0022BB61FA61D7E900
:103970000623D7E90A01FDF7BDFB02460B461346B5
:10398000FB6353E0354B5B689B0900223B617A6126
:103990003B69C3F3080A4FF0000B52465B464FF0F9
:1039A00000004FF00001590141EAD2615001024686
:1039B0000B46B2EB0A0863EB0B094FF000024FF025
:1039C00000034FEA891343EA98634FEA8812B2EB87
:1039D000080463EB09054FF000024FF00003EB0011
:1039E00043EA5473E20014461D4614EB0A033B609D
:1039F00045EB0B037B604FF000024FF00003D7E96B
:103A0000004529468B02214643EA915321468A020A
:103A1000104619467B6B0022BB60FA60D7E902238F
:103A2000FDF768FB02460B461346FB630B4B5B68D6
:103A30001B0C03F0030301335B003B63FA6B3B6B2E
:103A4000B2FBF3F3BB6302E0054BBB6300BFBB6B90
:103A500018464037BD46BDE8B08F00BF0038024071
:103A60000024F40040787D0180B400AF034B1B6854
:103A70001846BD465DF8047B704700BF6800002013
:103A800080B500AFFFF7F0FF0246054B9B689B0A2D
:103A900003F007030349CB5C22FA03F3184680BD09
:103AA000003802403831010880B500AFFFF7DCFF75
:103AB0000246054B9B685B0B03F007030349CB5C95
:103AC00022FA03F3184680BD00380240383101085D
:103AD00080B489B000AF7860396000237B61002337
:103AE0003B610023BB610023FB616BE10122FB69A9
:103AF00002FA03F37B613B681B687A6913403B6100
:103B00003A697B699A4240F05A813B685B6803F0EE
:103B10000303012B05D03B685B6803F00303022B12
:103B200030D17B689B68BB61FB695B00032202FAB2
:103B300003F3DB43BA691340BB613B68DA68FB6996
:103B40005B0002FA03F3BA691343BB617B68BA698D
:103B50009A607B685B68BB610122FB6902FA03F330
:103B6000DB43BA691340BB613B685B681B0903F028
:103B70000102FB6902FA03F3BA691343BB617B6874
:103B8000BA695A603B685B6803F00303032B17D0E4
:103B90007B68DB68BB61FB695B00032202FA03F30D
:103BA000DB43BA691340BB613B689A68FB695B0001
:103BB00002FA03F3BA691343BB617B68BA69DA603E
:103BC0003B685B6803F00303022B23D1FB69DA082F
:103BD0007B68083253F82230BB61FB6903F00703AE
:103BE0009B000F2202FA03F3DB43BA691340BB6167
:103BF0003B681A69FB6903F007039B0002FA03F3B1
:103C0000BA691343BB61FB69DA087B680832B9699A
:103C100043F822107B681B68BB61FB695B000322D1
:103C200002FA03F3DB43BA691340BB613B685B688C
:103C300003F00302FB695B0002FA03F3BA69134362
:103C4000BB617B68BA691A603B685B6803F4403308
:103C5000002B00F0B4800023FB60604B5B6C5F4A7C
:103C600043F4804353645D4B5B6C03F48043FB601F
:103C7000FB685B4AFB699B08023352F82330BB6147
:103C8000FB6903F003039B000F2202FA03F3DB43FB
:103C9000BA691340BB617B68524A93422BD07B6860
:103CA000514A934225D07B68504A93421FD07B688B
:103CB0004F4A934219D07B684E4A934213D07B6897
:103CC0004D4A93420DD07B684C4A934207D07B68A3
:103CD0004B4A934201D107230EE008230CE0062350
:103CE0000AE0052308E0042306E0032304E002239E
:103CF00002E0012300E00023FA6902F003029200CF
:103D00009340BA691343BB613549FB699B08023391
:103D1000BA6941F823203B4B9B68BB613B69DB439D
:103D2000BA691340BB613B685B6803F48013002BE6
:103D300003D0BA693B691343BB61324ABB699360E4
:103D4000304BDB68BB613B69DB43BA691340BB6145
:103D50003B685B6803F40013002B03D0BA693B692E
:103D60001343BB61274ABB69D360264B5B68BB61C9
:103D70003B69DB43BA691340BB613B685B6803F492
:103D80000033002B03D0BA693B691343BB611D4A62
:103D9000BB6953601B4B1B68BB613B69DB43BA6962
:103DA0001340BB613B685B6803F48033002B03D096
:103DB000BA693B691343BB61124ABB691360FB6973
:103DC0000133FB61FB690F2B7FF690AE00BF00BF94
:103DD0002437BD465DF8047B704700BF00380240C1
:103DE0000038014000000240000402400008024088
:103DF000000C024000100240001402400018024073
:103E0000001C0240003C014080B483B000AF7860E9
:103E10000B467B8013467B707B78002B03D07A881F
:103E20007B689A6103E07B881A047B689A6100BF13
:103E30000C37BD465DF8047B7047000080B586B046
:103E400000AF786000237B6100F072FD38617B6811
:103E5000002B01D1012399E07B68022283F83520F1
:103E60007B68002283F834207B681B681A687B68B3
:103E70001B6822F001021A600FE000F059FD0246B3
:103E80003B69D31A052B08D97B6820225A657B68C9
:103E9000032283F83520032378E07B681B681B68C6
:103EA00003F00103002BE8D17B681B681B687B6172
:103EB0007A69384B13407B617B685A687B689B68E2
:103EC0001A437B68DB681A437B681B691A437B686B
:103ED0005B691A437B689B691A437B68DB691A43F9
:103EE0007B681B6A13437A6913437B617B685B6A57
:103EF000042B07D17B68DA6A7B681B6B13437A69F2
:103F000013437B617B681B687A691A607B681B6856
:103F10005B697B617B6923F007037B617B685B6A7C
:103F20007A6913437B617B685B6A042B17D17B68DA
:103F30009B6A7A6913437B617B68DB6A002B0ED036
:103F4000786800F001FB0346002B08D07B68402214
:103F50005A657B68012283F83520012316E07B68CF
:103F60001B687A695A61786800F0B8FA0346FB600A
:103F70007B68DB6D3F229A40FB689A607B68002279
:103F80005A657B68012283F83520002318461837CC
:103F9000BD4680BD3F8010F080B586B000AFF860B0
:103FA000B9607A603B600023FB75FB689B6D3B61E9
:103FB000FB6893F83430012B01D1022340E0FB6809
:103FC000012283F83420FB6893F83530DBB2012BF3
:103FD0002FD1FB68022283F83520FB6800225A6546
:103FE0003B687A68B968F86800F04AFAFB68DB6DEC
:103FF0003F229A403B699A60FB681B681A68FB681D
:104000001B6842F016021A60FB681B6C002B07D07D
:10401000FB681B681A68FB681B6842F008021A609C
:10402000FB681B681A68FB681B6842F001021A6093
:1040300005E0FB68002283F834200223FB75FB7D3A
:1040400018461837BD4680BD80B584B000AF786093
:104050007B689B6DFB6000F06BFCB8607B6893F83D
:104060003530DBB2022B08D07B6880225A657B6832
:10407000002283F83420012352E07B681B681A6811
:104080007B681B6822F016021A607B681B685A69FD
:104090007B681B6822F080025A617B681B6C002BD6
:1040A00003D17B689B6C002B07D07B681B681A6868
:1040B0007B681B6822F008021A607B681B681A681C
:1040C0007B681B6822F001021A6013E000F030FCEC
:1040D0000246BB68D31A052B0CD97B6820225A658F
:1040E0007B68032283F835207B68002283F8342024
:1040F000032315E07B681B681B6803F00103002B9A
:10410000E4D17B68DB6D3F229A40FB689A607B6854
:10411000012283F835207B68002283F834200023B5
:1041200018461037BD4680BD80B483B000AF7860BC
:104130007B6893F83530DBB2022B04D07B68802299
:104140005A6501230CE07B68052283F835207B68E3
:104150001B681A687B681B6822F001021A60002342
:1041600018460C37BD465DF8047B704780B586B0B5
:1041700000AF78600023BB608E4B1B688E4AA2FBA9
:1041800003239B0A7B617B689B6D3B613B691B68DA
:10419000FB607B68DB6D08229A40FB681340002BB4
:1041A0001AD07B681B681B6803F00403002B13D034
:1041B0007B681B681A687B681B6822F004021A601F
:1041C0007B68DB6D08229A403B699A607B685B6D77
:1041D00043F001027B685A657B68DB6D01229A40DF
:1041E000FB681340002B12D07B681B685B6903F0EF
:1041F0008003002B0BD07B68DB6D01229A403B696A
:104200009A607B685B6D43F002027B685A657B684D
:10421000DB6D04229A40FB681340002B12D07B68B0
:104220001B681B6803F00203002B0BD07B68DB6D5F
:1042300004229A403B699A607B685B6D43F00402FC
:104240007B685A657B68DB6D10229A40FB681340DF
:10425000002B43D07B681B681B6803F00803002B0E
:104260003CD07B68DB6D10229A403B699A607B688A
:104270001B681B6803F48023002B18D07B681B6825
:104280001B6803F40023002B08D17B681B6C002BF8
:1042900024D07B681B6C786898471FE07B689B6C18
:1042A000002B1BD07B689B6C7868984716E07B6876
:1042B0001B681B6803F48073002B07D17B681B68A5
:1042C0001A687B681B6822F008021A607B681B6C06
:1042D000002B03D07B681B6C786898477B68DB6D8C
:1042E00020229A40FB681340002B00F08F807B68EF
:1042F0001B681B6803F01003002B00F087807B68AD
:10430000DB6D20229A403B699A607B6893F83530D8
:10431000DBB2052B36D17B681B681A687B681B688B
:1043200022F016021A607B681B685A697B681B685A
:1043300022F080025A617B681B6C002B03D17B68E2
:104340009B6C002B07D07B681B681A687B681B6816
:1043500022F008021A607B68DB6D3F229A403B69BD
:104360009A607B68012283F835207B68002283F8FD
:1043700034207B681B6D002B7ED07B681B6D7868BA
:10438000984779E07B681B681B6803F48023002B47
:104390001DD07B681B681B6803F40023002B0DD124
:1043A0007B685B6C002B31D07B685B6C78689847CE
:1043B0002CE000BF68000020B5814E1B7B68DB6BE2
:1043C000002B23D07B68DB6B786898471EE07B6806
:1043D0001B681B6803F48073002B0FD17B681B687C
:1043E0001A687B681B6822F010021A607B68012241
:1043F00083F835207B68002283F834207B68DB6BF0
:10440000002B03D07B68DB6B786898477B685B6D1B
:10441000002B32D07B685B6D03F00103002B22D0B0
:104420007B68052283F835207B681B681A687B68E7
:104430001B6822F001021A60BB680133BB607A6915
:104440009A4207D37B681B681B6803F00103002BAB
:10445000F2D100E000BF7B68012283F835207B6841
:10446000002283F834207B68DB6C002B05D07B684E
:10447000DB6C7868984700E000BF1837BD4680BD08
:1044800080B485B000AFF860B9607A603B60FB68CB
:104490001B681A68FB681B6822F480221A60FB689C
:1044A0001B683A685A60FB689B68402B08D1FB6820
:1044B0001B687A689A60FB681B68BA68DA6007E074
:1044C000FB681B68BA689A60FB681B687A68DA60E8
:1044D00000BF1437BD465DF8047B704780B485B0DB
:1044E00000AF78607B681B68DBB2103B144AA2FB0C
:1044F00003231B09FB60134AFB6813441B781A460D
:104500007B68DA65FB68032B09D97B681B6823F499
:104510007F7323F003031A1D7B689A6507E07B68AD
:104520001B6823F47F7323F003037A6893657B6829
:104530009B6D18461437BD465DF8047B704700BF7D
:10454000ABAAAAAA4031010880B485B000AF786058
:104550000023FB737B689B6ABB607B689B69002BB5
:104560001FD1BB68032B56D801A252F823F000BF1D
:10457000814500089345000881450008174600085A
:104580007B68DB6A03F08073002B46D00123FB734A
:1045900043E07B68DB6AB3F1C07F40D10123FB734A
:1045A0003DE07B689B69B3F5005F21D1BB68032BBD
:1045B00037D801A252F823F0C9450008CF450008BA
:1045C000C9450008E14500080123FB7330E07B6822
:1045D000DB6A03F08073002B25D00123FB7322E0FC
:1045E0007B68DB6AB3F1C07F1FD10123FB731CE042
:1045F000BB68022B03D9BB68032B03D018E001234F
:10460000FB7315E07B68DB6A03F08073002B0ED030
:104610000123FB730BE000BF0AE000BF08E000BF0E
:1046200006E000BF04E000BF02E000BF00E000BF02
:10463000FB7B18461437BD465DF8047B704700BF0E
:1046400080B485B000AF78607B6803F00703FB603F
:104650000C4BDB68BB60BA684FF6FF031340BB60CE
:10466000FB681A02BB68134343F0BF6343F4003393
:10467000BB60044ABB68D36000BF1437BD465DF819
:10468000047B704700ED00E080B400AF044BDB68B2
:104690001B0A03F007031846BD465DF8047B70470C
:1046A00000ED00E080B483B000AF0346FB7197F9E2
:1046B0000730002B0BDBFB7903F01F02074997F94A
:1046C00007305B09012000FA02F241F8232000BF05
:1046D0000C37BD465DF8047B704700BF00E100E089
:1046E00080B483B000AF03463960FB7197F907309F
:1046F000002B0ADB3B68DAB20C4997F9073012014C
:10470000D2B20B4483F800230AE03B68DAB20849CE
:10471000FB7903F00F03043B1201D2B20B441A766B
:1047200000BF0C37BD465DF8047B704700E100E038
:1047300000ED00E080B489B000AFF860B9607A6045
:10474000FB6803F00703FB61FB69C3F10703042B5C
:1047500028BF0423BB61FB690433062B02D9FB6924
:10476000033B00E000237B614FF0FF32BB6902FA9C
:1047700003F3DA43BB681A407B699A404FF0FF317C
:104780007B6901FA03F3D9437B680B401343184656
:104790002437BD465DF8047B7047000080B582B0C9
:1047A00000AF78607B68013BB3F1807F01D30123C8
:1047B0000FE00A4A7B68013B53600F214FF0FF3046
:1047C000FFF78EFF054B00229A60044B07221A6008
:1047D000002318460837BD4680BD00BF10E000E04A
:1047E00080B582B000AF78607868FFF729FF00BF1E
:1047F0000837BD4680BD80B586B000AF0346B960BE
:104800007A60FB7300237B61FFF73EFF78617A6873
:10481000B9687869FFF78EFF024697F90F301146A5
:104820001846FFF75DFF00BF1837BD4680BD80B555
:1048300082B000AF0346FB7197F907301846FFF7C7
:1048400031FF00BF0837BD4680BD80B582B000AFE4
:1048500078607868FFF7A2FF034618460837BD4620
:1048600080BD000080B500AF0E4B1B680D4A43F4BD
:10487000007313600B4B1B680A4A43F48063136098
:10488000084B1B68074A43F4807313600320FFF74B
:10489000A7FF0F2000F008F804F0D6FE002318460A
:1048A00080BD00BF003C024080B582B000AF7860A0
:1048B000124B1A68124B1B7819464FF47A73B3FBEC
:1048C000F1F3B2FBF3F31846FFF7BFFF0346002BEB
:1048D00001D001230EE07B680F2B0AD800227968F3
:1048E0004FF0FF30FFF787FF064A7B681360002315
:1048F00000E0012318460837BD4680BD680000204F
:10490000700000206C00002080B400AF064B1B78C4
:104910001A46064B1B681344044A136000BFBD4689
:104920005DF8047B704700BF70000020B0000020DD
:1049300080B400AF034B1B681846BD465DF8047B8E
:10494000704700BFB000002080B584B000AF786031
:10495000FFF7EEFFB8607B68FB60FB68B3F1FF3FD9
:1049600005D00A4B1B781A46FB681344FB6000BF56
:10497000FFF7DEFF0246BB68D31AFA689A42F7D8FF
:1049800000BF00BF1037BD4680BD00BF70000020D3
:1049900080B582B000AF78607B68002B01D1012325
:1049A0007BE07B685B6A002B08D17B685B68B3F5B2
:1049B000827F09D07B680022DA6105E07B680022F3
:1049C0001A617B6800225A617B6800229A627B68C8
:1049D00093F85130DBB2002B06D17B68002283F8BC
:1049E0005020786803F094FD7B68022283F8512000
:1049F0007B681B681A687B681B6822F040021A609B
:104A00007B685B6803F482727B689B6803F40443F1
:104A10001A437B68DB6803F400631A437B681B69F5
:104A200003F002031A437B685B6903F001031A4336
:104A30007B689B6903F400731A437B68DB6903F0AE
:104A400038031A437B681B6A03F0800342EA0301C0
:104A50007B689B6A03F400527B681B680A431A60F8
:104A60007B689B691B0C03F004017B685B6A03F0A5
:104A700010027B681B680A435A607B681B68DA690E
:104A80007B681B6822F40062DA617B6800225A6549
:104A90007B68012283F85120002318460837BD4661
:104AA00080BD80B588B000AFF860B9603B60134648
:104AB000FB80FFF73DFFF861FB887B83FB6893F881
:104AC0005130DBB2012B01D002232AE1BB68002B5D
:104AD00002D0FB88002B01D1012322E1FB6893F86F
:104AE0005030012B01D102231BE1FB68012283F826
:104AF0005020FB68032283F85120FB6800225A658E
:104B0000FB68BA681A63FB68FA889A86FB68FA88B9
:104B1000DA86FB6800229A63FB6800229A87FB68AA
:104B20000022DA87FB6800225A64FB6800221A64BC
:104B3000FB689B68B3F5004F0FD1FB681B681A68D0
:104B4000FB681B6822F040021A60FB681B681A6849
:104B5000FB681B6842F480421A60FB681B681B6894
:104B600003F04003402B07D0FB681B681A68FB6802
:104B70001B6842F040021A60FB68DB68B3F5006F07
:104B800052D1FB685B68002B02D07B8B012B45D197
:104B9000FB681B6B1A88FB681B68DA60FB681B6B81
:104BA0009A1CFB681A63FB68DB8E9BB2013B9AB2CE
:104BB000FB68DA8632E0FB681B689B6803F002033F
:104BC000022B12D1FB681B6B1A88FB681B68DA602A
:104BD000FB681B6B9A1CFB681A63FB68DB8E9BB23D
:104BE000013B9AB2FB68DA8618E0FFF7A1FE0246A5
:104BF000FB69D31A3A689A4203D83B68B3F1FF3F86
:104C000002D13B68002B09D1FB68012283F85120B7
:104C1000FB68002283F85020032382E0FB68DB8ED0
:104C20009BB2002BC7D153E0FB685B68002B02D01E
:104C30007B8B012B47D1FB681A6BFB681B680C331D
:104C400012781A70FB681B6B5A1CFB681A63FB68AE
:104C5000DB8E9BB2013B9AB2FB68DA8633E0FB68DD
:104C60001B689B6803F00203022B13D1FB681A6BCD
:104C7000FB681B680C3312781A70FB681B6B5A1C9C
:104C8000FB681A63FB68DB8E9BB2013B9AB2FB6840
:104C9000DA8618E0FFF74CFE0246FB69D31A3A6841
:104CA0009A4203D83B68B3F1FF3F02D13B68002B27
:104CB00009D1FB68012283F85120FB68002283F8A8
:104CC000502003232DE0FB68DB8E9BB2002BC6D166
:104CD000FA693968F86800F0D9FB0346002B02D066
:104CE000FB6820225A65FB689B68002B0AD10023D1
:104CF0007B61FB681B68DB687B61FB681B689B68EA
:104D00007B617B69FB68012283F85120FB680022EC
:104D100083F85020FB685B6D002B01D0012300E07D
:104D2000002318462037BD4680BD80B588B002AF4D
:104D3000F860B9603B601346FB80FB6893F8513024
:104D4000DBB2012B01D0022304E1BB68002B02D0AF
:104D5000FB88002B01D10123FCE0FB685B68B3F505
:104D6000827F12D1FB689B68002B0ED1FB68042266
:104D700083F85120FA883B6800931346BA68B968F3
:104D8000F86800F0EBF80346E4E0FFF7D1FD786146
:104D9000FB6893F85030012B01D10223DAE0FB6865
:104DA000012283F85020FB68042283F85120FB681D
:104DB00000225A65FB68BA689A63FB68FA889A878A
:104DC000FB68FA88DA87FB6800221A63FB68002216
:104DD0009A86FB680022DA86FB6800221A64FB6868
:104DE00000225A64FB689B68B3F5004F0FD1FB6843
:104DF0001B681A68FB681B6822F040021A60FB6897
:104E00001B681A68FB681B6822F480421A60FB6802
:104E10001B681B6803F04003402B07D0FB681B682E
:104E20001A68FB681B6842F040021A60FB68DB6886
:104E3000002B70D135E0FB681B689B6803F0010311
:104E4000012B15D1FB681B6803F10C02FB689B6BFF
:104E50001278D2B21A70FB689B6B5A1CFB689A637B
:104E6000FB68DB8F9BB2013B9AB2FB68DA8718E0E4
:104E7000FFF75EFD02467B69D31A3A689A4203D86F
:104E80003B68B3F1FF3F02D13B68002B09D1FB68BF
:104E9000012283F85120FB68002283F8502003236D
:104EA00058E0FB68DB8F9BB2002BC4D138E0FB6875
:104EB0001B689B6803F00103012B13D1FB681B687F
:104EC000DA68FB689B6B92B21A80FB689B6B9A1C3A
:104ED000FB689A63FB68DB8F9BB2013B9AB2FB686D
:104EE000DA8718E0FFF724FD02467B69D31A3A6897
:104EF0009A4203D83B68B3F1FF3F02D13B68002BD5
:104F000009D1FB68012283F85120FB68002283F855
:104F1000502003231EE0FB68DB8F9BB2002BC6D121
:104F20007A693968F86800F04BFA0346002B02D022
:104F3000FB6820225A65FB68012283F85120FB6838
:104F4000002283F85020FB685B6D002B01D0012309
:104F500000E0002318461837BD4680BD80B58AB0F2
:104F600000AFF860B9607A607B8001237B62FFF755
:104F7000DFFC3862FB6893F85130FB77FB685B68B5
:104F8000BB617B88FB82FB7F012B0CD0BB69B3F537
:104F9000827F06D1FB689B68002B02D1FB7F042B2C
:104FA00001D002237FE1BB68002B05D07B68002B7A
:104FB00002D07B88002B01D1012374E1FB6893F8B8
:104FC0005030012B01D102236DE1FB68012283F8EF
:104FD0005020FB6893F85130DBB2042B03D0FB6800
:104FE000052283F85120FB6800225A65FB687A6825
:104FF0009A63FB687A88DA87FB687A889A87FB6805
:10500000BA681A63FB687A88DA86FB687A889A86B7
:10501000FB6800221A64FB6800225A64FB681B6864
:105020001B6803F04003402B07D0FB681B681A681D
:10503000FB681B6842F040021A60FB68DB68B3F54E
:10504000006F7ED1FB685B68002B02D0FB8A012BCE
:105050006CD1FB681B6B1A88FB681B68DA60FB6805
:105060001B6B9A1CFB681A63FB68DB8E9BB2013BCF
:105070009AB2FB68DA8659E0FB681B689B6803F00C
:105080000203022B1BD1FB68DB8E9BB2002B16D0D8
:105090007B6A012B13D1FB681B6B1A88FB681B68AA
:1050A000DA60FB681B6B9A1CFB681A63FB68DB8E7B
:1050B0009BB2013B9AB2FB68DA8600237B62FB68F5
:1050C0001B689B6803F00103012B19D1FB68DB8F80
:1050D0009BB2002B14D0FB681B68DA68FB689B6BE3
:1050E00092B21A80FB689B6B9A1CFB689A63FB6800
:1050F000DB8F9BB2013B9AB2FB68DA8701237B62AC
:10510000FFF716FC02463B6AD31A3A6B9A420DD857
:105110003B6BB3F1FF3F09D0FB68012283F85120BC
:10512000FB68002283F850200323BCE0FB68DB8E81
:105130009BB2002BA0D1FB68DB8F9BB2002B9BD1D5
:1051400082E0FB685B68002B02D0FB8A012B71D1E7
:10515000FB681A6BFB681B680C3312781A70FB68CB
:105160001B6B5A1CFB681A63FB68DB8E9BB2013B0E
:105170009AB2FB68DA865DE0FB681B689B6803F007
:105180000203022B1CD1FB68DB8E9BB2002B17D0D5
:105190007B6A012B14D1FB681A6BFB681B680C330C
:1051A00012781A70FB681B6B5A1CFB681A63FB6849
:1051B000DB8E9BB2013B9AB2FB68DA8600237B62EE
:1051C000FB681B689B6803F00103012B19D1FB6886
:1051D000DB8F9BB2002B14D0FB681B68DA68FB687E
:1051E0009B6BD2B21A70FB689B6B5A1CFB689A636C
:1051F000FB68DB8F9BB2013B9AB2FB68DA87012325
:105200007B62FFF795FB02463B6AD31A3A6B9A42E0
:1052100003D83B6BB3F1FF3F02D13B6B002B09D1AD
:10522000FB68012283F85120FB68002283F850209C
:10523000032338E0FB68DB8E9BB2002B9CD1FB681C
:10524000DB8F9BB2002B97D13A6A396BF86800F07C
:105250001DF90346002B08D0FB6820225A65FB6825
:10526000002283F8502001231DE0FB689B68002B7F
:105270000AD100233B61FB681B68DB683B61FB686C
:105280001B689B683B613B69FB68012283F85120E6
:10529000FB68002283F85020FB685B6D002B01D077
:1052A000012300E0002318462837BD4680BD0000DA
:1052B00080B588B000AFF860B9603B601346FB7101
:1052C000FFF736FB0246BB6A9B1A3A681344FB6140
:1052D000FFF72EFBB861394B1B685B011B0DFA69A8
:1052E00002FB03F37B6155E03B68B3F1FF3F51D014
:1052F000FFF71EFB0246BB69D31AFA699A4202D92C
:10530000FB69002B3DD1FB681B685A68FB681B6872
:1053100022F0E0025A60FB685B68B3F5827F11D12E
:10532000FB689B68B3F5004F04D0FB689B68B3F53E
:10533000806F07D1FB681B681A68FB681B6822F046
:1053400040021A60FB689B6AB3F5005F0FD1FB68EF
:105350001B681A68FB681B6822F400521A60FB681D
:105360001B681A68FB681B6842F400521A60FB68ED
:10537000012283F85120FB68002283F85020032388
:1053800018E07B69002B02D10023FB6102E07B69FE
:10539000013B7B61FB681B689A68BB681340BA6875
:1053A0009A420CBF01230023DBB21A46FB799A42D2
:1053B0009AD1002318462037BD4680BD68000020E2
:1053C00080B586B002AFF860B9607A60FB685B6850
:1053D000B3F5827F11D1FB689B68B3F5004F04D011
:1053E000FB689B68B3F5806F07D1FB681B681A6880
:1053F000FB681B6822F040021A60FB685B68B3F52B
:10540000827F2AD1FB689B68B3F5806F12D07B68DE
:105410000093BB6800228021F868FFF749FF03462C
:10542000002B2DD0FB685B6D43F02002FB685A65B2
:10543000032326E07B680093BB6800220121F86803
:10544000FFF736FF0346002B1AD0FB685B6D43F075
:105450002002FB685A65032313E07B680093BB6856
:1054600000220121F868FFF723FF0346002B07D035
:10547000FB685B6D43F02002FB685A65032300E084
:10548000002318461037BD4680BD000080B588B0A7
:1054900002AFF860B9607A607B680093BB68012254
:1054A0000221F868FFF704FF0346002B07D0FB68D2
:1054B0005B6D43F02002FB685A65032332E01B4B0F
:1054C0001B681B4AA2FB03235B0D4FF47A7202FB9D
:1054D00003F37B61FB685B68B3F5827F12D17B6865
:1054E0000093BB6800228021F868FFF7E1FE0346C5
:1054F000002B16D0FB685B6D43F02002FB685A65F9
:1055000003230FE07B69002B0AD07B69013B7B61A1
:10551000FB681B689B6803F08003802BF2D000E0DF
:1055200000BF002318461837BD4680BD6800002024
:10553000819F5E1680B582B000AF78607B68002BDB
:1055400001D1012341E07B6893F83D30DBB2002BB1
:1055500006D17B68002283F83C20786803F03CFA8F
:105560007B68022283F83D207B681A687B680433DD
:105570001946104600F062FC7B68012283F8462041
:105580007B68012283F83E207B68012283F83F205C
:105590007B68012283F840207B68012283F8412048
:1055A0007B68012283F842207B68012283F8432034
:1055B0007B68012283F844207B68012283F8452020
:1055C0007B68012283F83D20002318460837BD463A
:1055D00080BD000080B485B000AF78607B6893F830
:1055E0003D30DBB2012B01D001234EE07B6802226B
:1055F00083F83D207B681B68DA687B681B6842F093
:105600000102DA607B681B68234A934222D07B68E0
:105610001B68B3F1804F1DD07B681B681F4A934203
:1056200018D07B681B681E4A934213D07B681B68A6
:105630001C4A93420ED07B681B681B4A934209D0D8
:105640007B681B68194A934204D07B681B68184A20
:10565000934211D17B681B689B6803F00703FB60D2
:10566000FB68062B10D07B681B681A687B681B6878
:1056700042F001021A6007E07B681B681A687B68C9
:105680001B6842F001021A60002318461437BD4619
:105690005DF8047B704700BF00000140000400403B
:1056A00000080040000C00400004014000400140A0
:1056B0000018004080B582B000AF78607B68002B96
:1056C00001D1012341E07B6893F83D30DBB2002B30
:1056D00006D17B68002283F83C20786800F039F816
:1056E0007B68022283F83D207B681A687B6804335C
:1056F0001946104600F0A2FB7B68012283F8462081
:105700007B68012283F83E207B68012283F83F20DA
:105710007B68012283F840207B68012283F84120C6
:105720007B68012283F842207B68012283F84320B2
:105730007B68012283F844207B68012283F845209E
:105740007B68012283F83D20002318460837BD46B8
:1057500080BD80B483B000AF786000BF0C37BD4619
:105760005DF8047B7047000080B584B000AF7860BE
:1057700039603B68002B09D17B6893F83E30DBB27F
:10578000012B14BF01230023DBB222E03B68042B72
:1057900009D17B6893F83F30DBB2012B14BF0123A2
:1057A0000023DBB215E03B68082B09D17B6893F836
:1057B0004030DBB2012B14BF01230023DBB208E031
:1057C0007B6893F84130DBB2012B14BF0123002327
:1057D000DBB2002B01D001237CE03B68002B04D11D
:1057E0007B68022283F83E2013E03B68042B04D13F
:1057F0007B68022283F83F200BE03B68082B04D132
:105800007B68022283F8402003E07B68022283F851
:1058100041207B681B6801223968184600F0FEFDB4
:105820007B681B682D4A934204D07B681B682C4A16
:10583000934201D1012300E00023002B07D07B68B5
:105840001B685A6C7B681B6842F400425A647B6890
:105850001B68224A934222D07B681B68B3F1804FB9
:105860001DD07B681B681F4A934218D07B681B6859
:105870001D4A934213D07B681B681C4A93420ED08A
:105880007B681B68164A934209D07B681B68184ADC
:10589000934204D07B681B68164A934211D17B68FF
:1058A0001B689B6803F00703FB60FB68062B10D0A6
:1058B0007B681B681A687B681B6842F001021A60EB
:1058C00007E07B681B681A687B681B6842F001026E
:1058D0001A60002318461037BD4680BD0000014005
:1058E000000401400004004000080040000C00409B
:1058F000004001400018004080B584B000AF7860DF
:105900007B681B68DB68FB607B681B681B69BB608E
:10591000BB6803F00203002B20D0FB6803F00203F6
:10592000002B1BD07B681B686FF002021A617B683A
:1059300001221A777B681B689B6903F00303002B25
:1059400003D0786800F05BFA05E0786800F04DFA63
:10595000786800F05EFA7B6800221A77BB6803F073
:105960000403002B20D0FB6803F00403002B1BD0A2
:105970007B681B686FF004021A617B6802221A7749
:105980007B681B689B6903F44073002B03D0786825
:1059900000F035FA05E0786800F027FA786800F042
:1059A00038FA7B6800221A77BB6803F00803002BE3
:1059B00020D0FB6803F00803002B1BD07B681B681A
:1059C0006FF008021A617B6804221A777B681B68F3
:1059D000DB6903F00303002B03D0786800F00FFAB3
:1059E00005E0786800F001FA786800F012FA7B6848
:1059F00000221A77BB6803F01003002B20D0FB684D
:105A000003F01003002B1BD07B681B686FF01002A3
:105A10001A617B6808221A777B681B68DB6903F4CC
:105A20004073002B03D0786800F0E9F905E078684E
:105A300000F0DBF9786800F0ECF97B6800221A7757
:105A4000BB6803F00103002B0CD0FB6803F00103DB
:105A5000002B07D07B681B686FF001021A61786821
:105A60000CF0DFFEBB6803F08003002B0CD0FB685A
:105A700003F08003002B07D07B681B686FF0800267
:105A80001A61786800F076FDBB6803F04003002BD4
:105A90000CD0FB6803F04003002B07D07B681B6829
:105AA0006FF040021A61786800F0BDF9BB6803F03E
:105AB0002003002B0CD0FB6803F02003002B07D041
:105AC0007B681B686FF020021A61786800F048FD5F
:105AD00000BF1037BD4680BD80B586B000AFF8600E
