:020000040800F2
:1000000090460020E10200084D760008956B00083C
:100010004175000805190008298E0008000000003D
:10002000000000000000000000000000B17900089E
:10003000591B000800000000BD760008097A00087E
:10004000FB020008FB020008FB020008FB0200089C
:10005000FB020008FB020008FB020008FB0200088C
:10006000FB020008FB020008FB020008411900081F
:1000700051190008FB02000861190008FB02000882
:100080007119000881190008FB020008FB02000832
:1000900009190008FB020008FB020008FB02000827
:1000A000FB020008257A0008FB020008FB0200089A
:1000B000357A0008FB020008FB020008FB0200087A
:1000C000FB020008FB020008FB020008FB0200081C
:1000D000FB0200085D8A0008A18B0008F18D000872
:1000E000FB020008FB020008FB020008757A00080A
:1000F000857A0008FB020008FB020008911900083D
:10010000FB020008FB020008457A0008FB02000819
:10011000FB02000811810008557A0008657A000882
:10012000FB020008A1190008B1190008FB02000831
:10013000FB0200080000000000000000FB020008B5
:10014000FB02000819190008FB020008FB02000866
:10015000FB020008FB020008FB0200080D8E0008ED
:10016000FB020008FB020008FB020008FB0200087B
:10017000FB020008FB020008000000000000000075
:10018000FB020008FB02000800F002F800F098F8FB
:100190000AA090E8000C82448344AAF10107DA45E2
:1001A00001D100F08DF8AFF2090EBAE80F0013F09C
:1001B000010F18BFFB1A43F0010318479014010008
:1001C000B0140100103A24BF78C878C1FAD8520799
:1001D00024BF30C830C144BF04680C6070470000C1
:1001E0000023002400250026103A28BF78C1FBD840
:1001F000520728BF30C148BF0B6070476E2900F01E
:100200004383702900F08584662911F07480652984
:1002100011F07180672911F06E80612911F06D80F5
:1002200003681B0A28BF41F08001692900F0F082B1
:10023000642900F0ED82752900F0EA826F2900F050
:100240001384782900F05184E92900F0AD83E42972
:1002500000F0AA83F52900F0A783EF2900F01084AD
:10026000F82900F050840368DB0928BF41F08001C1
:10027000632901F0B181732901F0B681E32901F00E
:10028000C181F32901F0C681002070471FB511F02C
:1002900020F89DE8030000F035FD00F017FD040094
:1002A0000020002110F056FA401C60600020002160
:1002B00010F066FAE06000F0C9F91FBD10B510BD7E
:1002C00001F0D1F91146FFF7E1FF0EF0EBFF01F06D
:1002D000BBFA03B4FFF7F2FF03BC00F0E9FC000037
:1002E0000948804709480047FEE7FEE7FEE7FEE7CA
:1002F000FEE7FEE7FEE7FEE7FEE7FEE70448054906
:10030000054A064B70470000117A00088901000871
:10031000901E00209046002090260020902600206D
:1003200053EA020C00F069802DE9F04B4FF0000613
:10033000002B1FBFB3FA83F503FA05F424FA05F680
:100340005E4012BF1643B2FA82F502FA05F4C5F117
:1003500020051EBF22FA05FC44EA0C04203556EAAB
:10036000044C4FEA144418BF641C4FF000084FF0CF
:100370000009904271EB030C39D3002919BFB1FA7F
:1003800081F701FA07F6B0FA80F700FA07F6C7F12D
:1003900020071EBF20FA07FC46EA0C062037B6FBF2
:1003A000F4FCA7EB0507103F07F01F0BCBF120066D
:1003B0002CFA06F60CFA0BFB44BFB3460026202F9E
:1003C000A4BF5E464FF0000B5BEA060C08BF4FF07F
:1003D000010B19EB0B0948EB0608ABFB027C06FB93
:1003E00002CC0BFB03CCC01B71EB0C01C1E70B462D
:1003F000024641464846BDE8F08B13B5084318BF96
:100400004FF0FF300146AFF30080BDE81C4070475D
:100410000FB41CB5084B06AA7B44694600900598AA
:1004200000F04BFA04460020694600F059FA2046D5
:100430001CBC5DF814FB0000C5040000002800DAB5
:1004400040427047032A40F2308010F0030C00F065
:10045000158011F8013BBCF1020F624498BF11F8FE
:1004600001CB00F8013B38BF11F8013BA2F10402B7
:1004700098BF00F801CB38BF00F8013B11F003032F
:1004800000F02580083AC0F0088051F8043B083A93
:1004900051F804CBA0E80810F5E7121D5CBF51F835
:1004A000043B40F8043BAFF30080D20724BF11F8AF
:1004B000013B11F801CB48BF11F8012B24BF00F814
:1004C000013B00F801CB48BF00F8012B704710B585
:1004D000203AC0F00B80B1E81850A0E81850B1E8FD
:1004E0001850A0E81850203ABFF4F5AF5FEA027C3C
:1004F00024BFB1E81850A0E8185044BF18C918C06C
:10050000BDE810405FEA827C24BF51F8043B40F80C
:10051000043B08BF7047D20728BF31F8023B48BFF1
:1005200011F8012B28BF20F8023B48BF00F8012B2F
:1005300070474FF000020429C0F0128010F0030C45
:1005400000F01B80CCF1040CBCF1020F18BF00F8C6
:10055000012BA8BF20F8022BA1EB0C0100F00DB875
:100560005FEAC17C24BF00F8012B00F8012B48BFD3
:1005700000F8012B70474FF0000200B51346944677
:100580009646203922BFA0E80C50A0E80C50B1F1EB
:100590002001BFF4F7AF090728BFA0E80C5048BFFF
:1005A0000CC05DF804EB890028BF40F8042B08BF9D
:1005B000704748BF20F8022B11F0804F18BF00F899
:1005C000012B70470000000030B44FF0013C50F8A0
:1005D000042B51F8043BCCFA52F4D51A20D1FCB9C3
:1005E00050F8042B51F8043BCCFA52F4D51A17D129
:1005F000B4B950F8042B51F8043BCCFA52F4D51A94
:100600000ED16CB950F8042B51F8043BCCFA52F4DB
:10061000D51A05D1002CDAD030BC4FF0000070475D
:1006200029BAB1FA81F111F01801D1F1200084400A
:10063000F2D1CA40CB4012F0FF0213F0FF0330BCEE
:10064000D01A7047704770477047000070B5064C6D
:100650007C44064D7D4404E0204601680844804700
:10066000241DAC42F8D170BD441101006C11010091
:1006700010B500F02BFB001D10BD00BFD90001001C
:10068000004870472000002070B5064600F01AFBB5
:10069000056806F10B0020F00704B4429CBF00205F
:1006A00070BD2B466A68BAB11068A04210D304F13D
:1006B000080188423CBF5068586007D35168101940
:1006C00041601168091B016058601460101D70BD05
:1006D00013465268002AE7D12146284600F0FEFA68
:1006E0000028DED170BD70B50446051F00F0EAFA9F
:1006F0000068002C14BF446870BD002C18BFAC42C9
:100700003CBF20466468F8D301680A18AA4218BFA3
:10071000456003D12A6805461144016028684119E3
:10072000A1421CBF6C6070BD6168696021680844AB
:10073000286070BD10B5FFF7A3FF006810BD10B5AD
:100740000446FFF79DFF046010BD70B5044685693F
:100750000068C10601D5302600E02026C00707D07A
:1007600070BDD4E9012130469047206A401C2062C8
:100770006D1EF6D570BD70B5044685690078C0075A
:1007800007D170BDD4E9012120209047206A401C88
:1007900020626D1EF6D570BD09684A0501D540B2CC
:1007A0007047C905FCD500B2704709684A0501D5F4
:1007B000C0B27047C905FCD580B2704770B50C4611
:1007C0000546012A05D02878800600D5EA6900236D
:1007D00002E0012305E05B1C934202D2E05C0028AA
:1007E000F9D1A869E618C01AA861286A18442862D5
:1007F0002846FFF7AAFF04E0D5E9012114F8010B10
:100800009047B442F8D32846FFF7B5FF70BD00000B
:100810002DE9F0410646002410687529314616A5D9
:1008200010D0FFF7B9FF002802DA404213A507E015
:1008300031688A0701D512A502E0490704D511A540
:10084000012401E0FFF7B1FF00210A2206F124078D
:1008500009E0B0FBF2FCB0FBF2F302FB1C0030300D
:1008600078541846491C0028F3D123462A463046BE
:10087000BDE8F04100F0C1BA000000002D0000000A
:100880002B0000002000000011680268006A530578
:1008900001D508700AE0D30501D5088006E01306EB
:1008A00003D5C217C1E9000200E0086001207047CB
:1008B00001694A1C02610878704700B58FB0CDE924
:1008C00001310021059105497944CDE90310114614
:1008D000684600F029F90FB000BD0000E5FFFFFFFA
:1008E0000A6802F8010B0A60704700002DE9FF5FFB
:1008F00015468A460446DFF8AC80F8440027D8E95C
:1009000000103E46CDE9001010E03AF816106A4695
:1009100002A800F083FE411C07D02178890603D588
:10092000E269391891420DD80744761C2078800678
:1009300002D5E069B84205DDAE42E6DB3AF81600C2
:100940000028E2D1A069C01BA0612046FFF7FDFE90
:10095000D8E90010CDE90010002017E03AF818108F
:100960006A4602A800F05AFEB0F1FF3F81460BD064
:1009700000250DF1080B05E0D4E901211BF8050065
:1009800090476D1C4D45F7D308F10100B0428046F9
:10099000E4DB206A384420622046FFF7ECFEBDE825
:1009A000FF9F0000020A01002DE9F0418046D21DA0
:1009B00022F007020025D2E90002F52915A614D07D
:1009C000011E72F1000106DA0023D0EB030063EB95
:1009D000020211A608E0D8F800108B0701D50FA677
:1009E00002E0490701D50EA601251146002408F1B1
:1009F000240704E000F0BCF930323A55641C50EA98
:100A00000102F7D12B46324621464046BDE8F0416F
:100A100000F0F3B9000000002D0000002B000000E2
:100A20002000000030B4002100F1240408E002F0AE
:100A30000705D208303542EA4372DB086554491C89
:100A400052EA0305F3D10468002310A2250708D554
:100A500004F020040C4304D0C46901230CA2641EDA
:100A6000C46130BC00F0C9B910B504462146106815
:100A7000FFF79BFE02462046BDE810400023D1E769
:100A8000D21D22F00701D1E90023CBE700000000CE
:100A900030000000F0B40D460188090502D5214C54
:100AA0007C4402E01F4C7C440E34002100F12406FB
:100AB00008E002F00F071209E75D42EA03721B0922
:100AC0007754491C52EA0307F3D102780023120736
:100AD00004D5702D06D009B1022311342246F0BC92
:100AE00000F08BB901231034F8E770B504460D46C9
:100AF00021461068FFF759FE024629462046BDE808
:100B000070400023C6E7D21D22F00703D3E900237B
:100B1000C0E70368126843F0200303600823C36141
:100B20000023B7E7640801002DE9F05F8946044619
:100B30004FF0000ADFF874B1FB44C0F820A0204653
:100B4000E1688847002874D0252806D0D4E901211F
:100B50009047206A401C2062F1E700265F4620464D
:100B6000E16888472028054607DB312D05D2781932
:100B700010F8200C08B10643F1E7B00701D526F0C4
:100B80000406C4F81CA00027C4F818A02A2D09D018
:100B900028460FF0B9FD38B304EB8708303DC8F89C
:100BA000185019E059F8041B204604EB87029161A4
:100BB000E1688847012F054618D1E069002820DA4E
:100BC00026F020061DE0D8F8180000EB800005EBA9
:100BD00040003038C8F818002046E16888470546CC
:100BE0000FF092FD0028EED1012F0AD02E2D08D152
:100BF0002046E16888477F1C0546022F46F0200604
:100C0000C4DBA069002803DA404246F00106A06177
:100C1000F00701D026F010066C2D0BD0682D09D0FE
:100C20004C2D39D06A2D35D0742D35D07A2D33D056
:100C300016E038E0E1682F4620468847B84205466E
:100C400009D16C2F26D04FF48060E168064320461E
:100C50008847054604E06C2F1AD04FF48070064395
:100C60000DB3A5F14100192802D8203546F40066DD
:100C70004A462946204626604E46FFF7BFFA80B115
:100C800001280BD0F61D26F0070000F1080956E7F1
:100C90004020E4E78020D8E70020D6E706F10409E9
:100CA0004DE7284652E7206ABDE8F09FF4070100AF
:100CB00001491820ABBEFEE726000200004870473D
:100CC000200000200048704728000020004870479E
:100CD00040000020704770477047704738B50446A1
:100CE0000A4600206946AFF30080002808BF38BDDF
:100CF00002460099204600F0DBFC012038BD0120AF
:100D000000F0B0BDF8B5AFF30080054600200C46FA
:100D1000102000BF0646A819A0420DD932466946E8
:100D20000020AFF30080070008BF00F09BFD009893
:100D3000A04218BF0546C419FFF7C4FF0560074667
:100D4000F01D20F007004619284600F00AF8B442CA
:100D500008BFF8BDA21B31463868BDE8F84000F076
:100D6000A7BC00210160C0E9011070471020704746
:100D700030B5B0F10A0271F100034FEA900E4EEA6D
:100D8000817EB0EB0E0061EB91014FEA101E4EEA3E
:100D9000017E10EB0E0041EB11114FEA102E4EEACE
:100DA000016E10EB0E0041EB11214FEA104E4EEA9E
:100DB000014E10EB0E0041EB1141401841F10001D2
:100DC0004FEAD00040EA41704FEAD1014FEA810476
:100DD00044EA907410EB800544EB01046D1944EB78
:100DE0000404521BA3414FF0000348BF0A3200D550
:100DF00030BD401C41F1000130BD2DE9F0470D46EA
:100E000099469246044600F124080168880604D5F4
:100E1000E06921F01001216000E00120A84201DD1D
:100E2000471B00E00027A1697A1902EB0900081AA4
:100E3000A0612078C00602D42046FFF786FC002679
:100E400008E0D4E901211AF806009047206A401C06
:100E5000761C20624E45F4DB2078C0060AD5204679
:100E6000FFF773FC06E0D4E9012130209047206AA7
:100E7000401C2062381EA7F10107F4DC07E0D4E92A
:100E8000012118F805009047206A401C2062281EA6
:100E9000A5F10105F3DC2046FFF76DFC2078000684
:100EA00002D50220BDE8F0870120FBE72DE9FF4FC6
:100EB0000C461E464FF0FF378BB0D2E90001DDF83B
:100EC00060800A908A46C1F30A5505B93D46002163
:100ED00008464FF00000BAF1000F00F4400005DAB8
:100EE00000EB80004FF4400101EA50004FEA9059B6
:100EF000B9F1010F00DDB9460A9850EA4A000ED058
:100F000044F61050A5F2FF3545432F14B8F1000FF9
:100F10001ED07542291E1EDDC9F100021CE0B8F189
:100F2000010F4FF0000001D0302103E0F24305E053
:100F30002154401CB042FBDB3046002200212154EA
:100F40000B99C1F80880C1E900200FB0BDE8F08F0F
:100F5000BD1B6D1CDEE74A4600DA694206A800F0B8
:100F600001FC06AB93E8070003AB83E8070050469B
:100F70000A990EF0D2FD8DE80700A0F500501F3849
:100F800000900398002D0ADD42F21F014A460844F2
:100F9000002303A9039068460FF03CF809E0A0F590
:100FA00000504A461F38002303A9039068460FF0FB
:100FB00046F88DE807000004000C03D04FF0FF3026
:100FC000410800E01046B8F1000F03D00022009263
:100FD00015461EE0751E05D4FFF7CAFE3032625575
:100FE0006D1EF9D5B3460122084302D000227F1CB2
:100FF00004E02078302801D100227F1E002A0997C2
:1010000084D01DE0112D07DAFFF7B2FE30326255B1
:101010006D1C50EA0102F5D1084302D00098C8B116
:101020000EE00021681E05E0235C625C63542254DC
:10103000401E491C8142F7DBAB46A81B401E0990AD
:10104000002004F80B000B98099AC0F80880C0E94A
:10105000002B7AE711264FF0000857E72DE9F04FF3
:1010600088460446D21D22F0070191B0D1E9000163
:10107000CDE90A010FF01AF902460B98C00F01D012
:101080002D2007E02068810701D52B2002E02021D8
:1010900001EAC000032A099001D0072A05DB0346B4
:1010A0004146204600F01EFB0BE12078800601D56A
:1010B000E06900E00620B8F1650F814606D0B8F17E
:1010C000660F18D0B8F1670F70D131E00020B9F188
:1010D000110F009001DB112301E009F101030AAABD
:1010E00001A90CA8FFF7E2FEDDE90C70002609F16A
:1010F0000105834647E001204B4600904FF0004732
:101100000AAA01A90CA8FFF7D1FEDDE90DB00C99E0
:101110005D46002610B909F101000D18B9EB050074
:1011200003D4C0F1FF3609F10105A5EB09002BE05E
:10113000B9F1010F01DA4FF001090020B9F1110FE7
:101140000090484601DD112300E003460AAA01A9E8
:101150000CA8FFF7ABFEDDE90C704D460026834678
:10116000207800070AD4AB4500DA5D4601A8012DBE
:1011700004DD411911F8011C302907D04F4502DA6E
:1011800017F1040F04DA012082460FE06D1EEEE72E
:10119000002F02DCED1B3E4403E0781CA84200DD7A
:1011A0007D1CB81B00F1010A4FF0004720780007B2
:1011B00003D4AA4501DB4FF0FF3A0021B7F1004FFD
:1011C0000DF143088DF8431024D002202B23002F6B
:1011D00001DA7F422D230A21021EA0F1010000DC6A
:1011E0005FB197FBF1FC97FBF1F201FB1C7C17460A
:1011F0000CF1300C08F801CDEEE7A8F10100037006
:101200002188090501D5452100E06521A0F10108EB
:1012100000F8011C09980FA9A1EB0807FF1D00B1F8
:101220000120411901EBEA70A1693844081A401EF7
:10123000A0612078C00602D42046FFF786FA0998FC
:1012400028B1D4E901219047206A401C206220780F
:10125000C00622D52046FFF778FA1EE0002E04DBF8
:10126000B34502DD01A8805D00E03020D4E9012112
:101270009047206A401C2062761CAAF101005FEAB8
:10128000000A0AD1FFF722FDC0680168405CD4E97A
:1012900001219047206A401C2062281EA5F101050B
:1012A000DCDC07E0D4E9012118F8010B9047206A43
:1012B000401C2062381EA7F10107F3DC2046FFF72F
:1012C0005AFA032011B041E62DE9F04F04460D46CD
:1012D000D21D22F0070089B0D0E900974846394670
:1012E0000EF0E4FF0246F80F01D02D2307E020683E
:1012F000810701D52B2302E0202101EAC0038DF8EC
:1013000020300BB1012000E00020032A824601D0EA
:10131000072A04DB2946204600F0E4F93FE1207863
:10132000800601D40D2500E0E569C7F30A560D2DAE
:1013300049DA00214FEA175B08464FF00000002F02
:1013400000F4400007DA00EB80004FF4400100EBAE
:10135000D07001EA60008115012901DD4FF0FF31F5
:1013600000224FEA850CBCF1180F06D31346ACF1EE
:1013700018004FF08052C24003E04FF4801323FA6C
:101380000CF30CF10C0CBCF1200F04D3ACF1200CCD
:1013900009FA0CF001E007FA0CF000294FF00048C0
:1013A00001DD18B90FE00ED140450CD319EB02094D
:1013B0005F4121B9404502D19F4329EA0209BBEBB5
:1013C000175F00D0761C2088000502D57B48784442
:1013D00002E07A487844193808AA302302F80A3023
:1013E000037C0AF10101002E0AF1020A53546A46F5
:1013F00002DC4FF0300101E04FF031014FF0010805
:101400008DF8001002D0A6F2FF3603E059EA47013A
:1014100000D06B4E002D02DC2178090704D54FF077
:1014200002082E218DF80110C44600210BE0C7F3FD
:1014300003433F01C35C491C6D1E02F808300529B7
:1014400008F1010801DA002DF1DC00210CE000EBCD
:101450001973491C1B786D1E082902F808304FEAE1
:10146000091908F1010801DA002DF0DC21688B066A
:1014700002D516E0A8F10108E04505DD02EB0803FE
:1014800013F8013C302BF5D0B8F1000F09DD02EB69
:10149000080313F8013C2E2B03D1090701D4A8F14E
:1014A0000108002D05DD3E2102F808106D1E08F12F
:1014B0000108407C002E02F8080008F1010804DA57
:1014C0002D20764202F8080002E02B2002F80800E6
:1014D0000A214FF47A70864208F101080BDB96FB73
:1014E000F0F3303302F8083096FBF0F308F101080E
:1014F00000FB136601E0642E0CDB642096FBF0F326
:10150000303302F8083096FBF0F308F1010800FBD5
:10151000136601E00A2E06DB96FBF1F0303002F88C
:10152000080008F1010896FBF1F001FB1060303073
:1015300002F80800A16908F1010808EB050202EBB6
:101540000A00081AA0612078C00602D42046FFF7DE
:10155000FCF8216A08AE01EB0A00206204E0D4E93D
:10156000012116F8010B9047BAF1010AF7D2207851
:10157000C00602D52046FFF7E8F86E4609E016F8E7
:10158000010B3E280FD0D4E901219047206A401C6E
:101590002062B8F10108F2D22046FFF7ECF809B05A
:1015A0000320BDE8F08F206A2844206203E0D4E9DC
:1015B0000121302090476D1EEBD3F8E782FF000039
:1015C00002FCFFFF10B5436913B1AFF3008001E0E7
:1015D000FFF7F4F8012010BD127800F124010A7021
:1015E00000224A700122EDE711684FF0FF32E9E76F
:1015F00010B5436913B1AFF3008001E0FFF776F94E
:10160000012010BD128800F1240182840022C284CE
:101610000122EDE711684FF0FF32E9E72DE9F041D3
:1016200016460C460546FFF723F8036893F80101B8
:10163000012807D0FF2C12D8185D80B101202C7032
:10164000BDE8F081D3F807013246214603F20713C3
:10165000C7182846BC46BDE8F041002360474FF05C
:10166000FF30EDE770477546FFF728FBAE460500F3
:101670006946534620F00700854618B020B5FEF7AE
:101680003DFEBDE820404FF000064FF000074FF050
:1016900000084FF0000BAC46ACE8C009ACE8C0094C
:1016A000ACE8C009ACE8C00921F007018D467047DD
:1016B000034640688C46002818BF88423CBF03465A
:1016C0004068F8D318681844884207D00CF103002A
:1016D00020F00700001D411A521A0146081D0A6039
:1016E000FFF701B82DE9F0411F46044603260168C3
:1016F000072A01F4006004DB08B116A505E016A571
:1017000003E008B115A500E015A521F01000206048
:10171000A069C01EA0610FB1401EA0612046FFF766
:1017200014F84FB1D4E9012138469047206A401C93
:101730002062C01C206206E0206AFAE7D4E9012199
:1017400015F8010B9047761EF8D22046FFF713F8E4
:10175000BDE8F0814E414E006E616E00494E46007C
:10176000696E66002DE9F047814616468AB0354815
:1017700078440DC88DE80D0032487844801C03ACD5
:101780000DC884E80D0041F69B300844372190FBDA
:10179000F1F290FBF1F5A5F1800501FB12041B3C71
:1017A00002D56442012000E00020DFF898A08046C6
:1017B0000027FA44AAF1BE0A0EE0E0070AD032463A
:1017C000684607EB470101230AEB81010EF037FC65
:1017D0008DE8070064107F1C002CEED1194F7F4468
:1017E000AE3F19E0E80715D007EB04100DF1180A19
:1017F00090E80E008AE80E00C068F04201D1981906
:1018000008903246012306A903A80EF018FC03AB8A
:1018100083E807006D10641C002DE3D14FF0010335
:1018200032466946B8F1000F03A802D00EF0F2FB71
:1018300001E00EF004FCC9E90001C9F808200AB073
:10184000BDE8F08770FC000010B50446AFF30080DF
:101850002046BDE81040FEF73CBD002801D0FFF750
:1018600027BA704710B500F01DF8BDE81040FFF72B
:10187000F4BF70B505460C460A2000E06D1C00F070
:1018800039F835B128780028F8D102E0641C00F05E
:1018900031F814B120780028F8D1BDE870400A2052
:1018A00000F028B810B5012805D0002103A0FFF7EB
:1018B000E0FF012010BD09A1F8E70000534947529D
:1018C000544D454D3A204F7574206F662068656110
:1018D00070206D656D6F7279000000003A204865D8
:1018E0006170206D656D6F727920636F72727570B3
:1018F0007465640008B569468DF800000320ABBE2E
:1019000008BD0000FFE7FEE780B540F61070C2F2A8
:10191000000000F05DFC80BD80B540F63870C2F27A
:10192000000000F055FC80BD84B003900399086866
:101930004968019100909DED000B04B070470000D4
:1019400080B540F66070C2F2000001F095F980BDEC
:1019500080B541F24010C2F2000001F08DF980BD67
:1019600080B541F2A010C2F2000001F085F980BDFF
:1019700080B541F28000C2F2000001F07DF980BD27
:1019800080B541F2E000C2F2000001F075F980BDBF
:1019900080B540F6C070C2F2000001F06DF980BD64
:1019A00080B541F20020C2F2000001F065F980BD6F
:1019B00080B541F22000C2F2000001F05DF980BD67
:1019C00082B001900198007810384AF6AB21CAF62F
:1019D000AA21A0FB011000090090009941F21440D7
:1019E000C0F60100405C0199C8650098042807D33F
:1019F000FFE701990868042262F30900886506E0A0
:101A00000199086840F2FF3290438865FFE701982A
:101A1000806D02B07047000086B0059000208DF800
:101A200013000598806A03900598806910BBFFE752
:101A30000398029003281BD80299DFE801F0020DF9
:101A40000218059890F82F00C00720B1FFE7012089
:101A50008DF81300FFE70CE00598C06AB0F1C07F75
:101A600004D1FFE701208DF81300FFE701E000E05B
:101A7000FFE745E005988069B0F5005F25D1FFE7F5
:101A80000398019003281ED80199DFE801F00206AF
:101A9000021101208DF8130016E0059890F82F0030
:101AA000C00720B1FFE701208DF81300FFE70BE02E
:101AB0000598C06AB0F1C07F04D1FFE701208DF81E
:101AC0001300FFE700E0FFE719E003980090032808
:101AD00004D3FFE70098032804D00EE001208DF81E
:101AE00013000BE0059890F82F00C00720B1FFE726
:101AF00001208DF81300FFE700E0FFE7FFE7FFE7B5
:101B00009DF8130006B0704784B0039002910192D3
:101B1000009303980168086820F48020086000980A
:101B200003990968486003988068402809D1FFE755
:101B30000198039909688860029803990968C86048
:101B400008E0029803990968886001980399096878
:101B5000C860FFE704B070477047000072B6FFE747
:101B6000FEE7000080B584B00390039800786628F3
:101B700040D1FFE70398007F11283BD1FFE703988E
:101B8000407840F6A832C2F20002029202F8040B3A
:101B9000039840F23021C2F20001019191ED7A0ADE
:101BA000022108F09DF80299039801F1080206212C
:101BB00008F064F80299039801F10C020A2108F078
:101BC0005DF8019A0299039892ED790A01F11002E9
:101BD0000E2108F085F80299039801F114021221F0
:101BE00008F04CF80299039801F11802162108F048
:101BF00045F8FFE704B080BD84B0029001910298DF
:101C000090F820008DF803009DF80300012805D00E
:101C1000FFE79DF8030002280AD1FFE7019A029826
:101C2000016848691043486100208DF80F0008E002
:101C30000299486A40F48020486201208DF80F0024
:101C4000FFE79DF80F0004B07047000088B00690D1
:101C5000059104920393069890F820008DF80700F0
:101C600006980068806800900598806808B9FFE7CA
:101C700000E0FFE79DF80700012806D0FFE79DF888
:101C80000700022840F08080FFE79DF8030040072E
:101C900000280CD4FFE79DF803000007002806D4B5
:101CA000FFE79DF80300C006002864D5FFE7009811
:101CB000C0F30160029002990120884003990860F6
:101CC0000598806868B9FFE705980168C06840EA30
:101CD000415006990968029A01EB0211C1F880018E
:101CE0000EE005994A688868C96840EAC20008435E
:101CF00006990968029A01EB0211C1F88001FFE719
:101D00000598006906990968029A01EB0211C1F869
:101D100084010598007D01280CD1FFE70698006832
:101D2000029900EB0111D1F8840140F48070C1F8F0
:101D30008401FFE70498406806990968029A01EB5C
:101D40000211C1F88C010498006806990968029A8A
:101D500001EB0211C1F8880106980068029900EBB6
:101D60000111D1F8800140F00100C1F8800100208C
:101D70008DF81F0011E00699486A40F4001048628F
:101D800001208DF81F0008E00699486A40F4802081
:101D9000486201208DF81F00FFE79DF81F0008B082
:101DA0007047000086B004900391049890F82000DA
:101DB0008DF803009DF80300012806D0FFE79DF889
:101DC0000300022840F0B080FFE746F20040C4F272
:101DD000000001900199D1F8000240F00100C1F823
:101DE00000020199D1F8000220F47C50C1F80002F1
:101DF0000398426A0199D1F8000240EA0220C1F832
:101E000000020398406900F01F0101208840029001
:101E1000029A0199D1F81C029043C1F81C02039860
:101E2000C069F0B9FFE7029A0199D1F80C0290431A
:101E3000C1F80C02039A9088D168526940EA0140C7
:101E4000019901EBC201C1F84002039A1088916820
:101E5000526940EA0140019901EBC201C1F8440214
:101E6000FFE70398C06901281ED1FFE7029A019994
:101E7000D1F80C021043C1F80C02039A9088116843
:101E8000526940EA0140019901EBC201C1F84002E8
:101E9000039A90899168526940EA0140019901EBE7
:101EA000C201C1F84402FFE70398806940B9FFE727
:101EB000029A0199D1F804029043C1F8040207E0A4
:101EC000029A0199D1F804021043C1F80402FFE715
:101ED0000398006940B9FFE7029A0199D1F814020A
:101EE0009043C1F8140207E0029A0199D1F8140254
:101EF0001043C1F81402FFE70398006A012808D1D3
:101F0000FFE7029A0199D1F81C021043C1F81C02A4
:101F1000FFE70199D1F8000220F00100C1F80002AA
:101F200000208DF8170008E00499486A40F48020EA
:101F3000486201208DF81700FFE79DF8170006B0F2
:101F40007047000081B0009001B0704786B00490E7
:101F5000039102920193049890F820008DF80300F9
:101F60009DF80300012806D0FFE79DF80300022832
:101F700040F0E880FFE7039880B9FFE70498006825
:101F8000C068800748B9FFE70499486A40F4001028
:101F9000486201208DF81700DDE00FE0049800682A
:101FA0000069800748B9FFE70499486A40F40010C7
:101FB000486201208DF81700CDE0FFE70498006823
:101FC000039900EB0110D0F8B00100F00400029971
:101FD00088600298806858B9FFE704980068039900
:101FE00000EB0110D0F8B001400D029908600AE042
:101FF00004980068039900EB0110D0F8B001C00804
:1020000002994860FFE704980068039900EB01100B
:10201000D0F8B00100F002000299C860049800688E
:10202000039900EB0110D0F8B40100F00F0008286C
:1020300004D3FFE70299082008610BE004980068C8
:10204000039900EB0110D0F8B40100F00F000299E1
:102050000861FFE704980068039900EB0110D0F8CD
:10206000B40180B2000A029988610498006803995B
:1020700000EB0110D0F8B401000C029948610498FB
:102080000068039900EB0110D0F8B80101990870BD
:1020900004980068039900EB0110D0F8B801000A19
:1020A0000199487004980068039900EB0110D0F87A
:1020B000B801000C0199887004980068039900EB3E
:1020C0000110D0F8B801000E0199C870049800689A
:1020D000039900EB0110D0F8BC0101990871049834
:1020E0000068039900EB0110D0F8BC01000A0199C7
:1020F000487104980068039900EB0110D0F8BC0106
:10210000000C0199887104980068039900EB011094
:10211000D0F8BC01000E0199C871039838B9FFE7E7
:1021200004980168C86840F02000C86006E0049880
:102130000168086940F020000861FFE700208DF881
:10214000170008E00499486A40F4802048620120A2
:102150008DF81700FFE79DF8170006B070470000E4
:1021600083B0029000200190029890F820008DF832
:1021700003009DF80300012805D0FFE79DF8030048
:10218000022822D1FFE702980068806840010028F9
:1021900004D5FFE7019801300190FFE7029800683D
:1021A00080680001002804D5FFE701980130019004
:1021B000FFE7029800688068C000002804D5FFE7A8
:1021C000019801300190FFE7FFE7019803B07047E5
:1021D00080B58AB00990002008900998006840698D
:1021E0000790099800684068069009980068806820
:1021F000059009980068C068049009980068006913
:10220000039009980068806902909DF81C00C0073F
:10221000002800F09480FFE79DF81400C00758B331
:10222000FFE709980168012088609DF81400800785
:10223000002804D5FFE7099800F06EFC1BE09DF82C
:1022400014004007002805D5FFE7089840F4006017
:1022500008900FE09DF814000007002805D5FFE75F
:10226000089840F48050089003E0099800F050FC72
:10227000FFE7FFE7FFE7FFE79DF81500C00760B342
:10228000FFE7099801684FF4807088609DF8150099
:102290008007002804D5FFE7099800F045FC1BE003
:1022A0009DF815004007002805D5FFE7089840F481
:1022B000005008900FE09DF815000007002805D594
:1022C000FFE7089840F48040089003E0099800F088
:1022D00027FCFFE7FFE7FFE7FFE79DF81600C007D1
:1022E00060B3FFE7099801684FF4803088609DF87B
:1022F00016008007002804D5FFE7099800F01CFCB1
:102300001BE09DF816004007002805D5FFE7089858
:1023100040F4004008900FE09DF8160000070028E8
:1023200005D5FFE7089840F48030089003E009984D
:1023300000F0FEFBFFE7FFE7FFE7FFE7FFE79DF8A1
:102340001C000007002810D5FFE79DF81000C0060C
:10235000002809D5FFE7089840F400700890099814
:1023600001681020C860FFE7FFE79DF81C004007E8
:1023700000280FD5FFE79DF810000007002808D5BA
:10238000FFE7099801680820C860099800F0CEFAB4
:10239000FFE7FFE79DF81C00800700280BD5FFE74B
:1023A00009980068C068800720B1FFE7099800F02D
:1023B000C1FAFFE7FFE79DF81C004006002810D592
:1023C000FFE79DF80C00C006002809D5FFE7089834
:1023D00040F4806008900998016810200861FFE7C8
:1023E000FFE79DF81C00800600280FD5FFE79DF849
:1023F0000C000007002808D5FFE7099801680820AD
:102400000861099800F0D4FAFFE7FFE79DF81C0087
:10241000C00600280BD5FFE709980068006980070F
:1024200020B1FFE7099800F0C7FAFFE7FFE79DF842
:102430001E00800700280FD5FFE79DF81800C00692
:10244000002808D5FFE7099801681020486009981E
:1024500000F014FBFFE7FFE79DF81E00C00778B10E
:10246000FFE79DF818000007002808D5FFE7099846
:10247000016808204860099800F062FBFFE7FFE769
:102480009DF81D000006002840F18D80FFE79DF8B3
:1024900018004007002840F18180FFE79DF81D00EB
:1024A000C00750B1FFE79DF80800C00728B1FFE75B
:1024B000089840F001000890FFE79DF81D00800794
:1024C00000280BD5FFE79DF808008007002805D5F8
:1024D000FFE7089840F002000890FFE79DF81D0014
:1024E000400700280BD5FFE79DF8080040070028AB
:1024F00005D5FFE7089840F004000890FFE79DF835
:102500001D000007002848D5FFE79DF8080010F0DF
:10251000700F42D0FFE7029800F070000146019171
:10252000102814D0FFE70198202815D0FFE7019864
:10253000302816D0FFE70198402817D0FFE7019810
:10254000502818D0FFE70198602819D01DE008989E
:1025500040F00800089019E0089840F0100008903A
:1025600014E0089840F0200008900FE0089840F030
:10257000400008900AE0089840F08000089005E0CC
:10258000089840F48070089000E0FFE7099801681F
:10259000886920F070008861FFE7FFE7099801680B
:1025A00004204860FFE7089848B1FFE7089A0999B6
:1025B000486A104348620998FFF7C4FCFFE70AB075
:1025C00080BD000080B584B00290029820B9FFE77A
:1025D00001208DF80F00E0E0029890F8200020B96B
:1025E000FFE7029800F0DEF8FFE70298016808684C
:1025F00040F00100086000F0FFFF0190FFE7029843
:1026000000684068C007A8B9FFE700F0F5FF01992E
:10261000401A0B280DD3FFE70299486A40F40030B6
:1026200048620299052081F8200001208DF80F00F2
:10263000B3E0E4E702980168086820F0020008604F
:1026400000F0DAFF0190FFE7029800684068800719
:10265000002815D5FFE700F0CFFF0199401A0B289D
:102660000DD3FFE70299486A40F4003048620299AE
:10267000052081F8200001208DF80F008DE0E3E7B0
:102680000298007E012807D1FFE7029801680868D8
:1026900040F08000086006E002980168086820F0B9
:1026A00080000860FFE70298407E012807D1FFE71D
:1026B00002980168086840F04000086006E002984F
:1026C0000168086820F040000860FFE70298807EFB
:1026D000012807D1FFE702980168086840F0200050
:1026E000086006E002980168086820F02000086091
:1026F000FFE70298C07E012807D1FFE70298016832
:10270000086820F01000086006E002980168086878
:1027100040F010000860FFE70298007F012807D111
:10272000FFE702980168086840F00800086006E0CA
:1027300002980168086820F008000860FFE7029826
:10274000407F012807D1FFE702980168086840F040
:102750000400086006E002980168086820F00400A0
:102760000860FFE7029B19685A689868D3F80CC0A4
:1027700040EA0C00D3F810C040EA0C005B69184333
:10278000013A1043C861029900204862029A01216F
:1027900082F820108DF80F00FFE79DF80F0004B0BD
:1027A00080BD000080B590B00F9000200E900D907D
:1027B0000C900B900A900F98006846F20041C4F20A
:1027C000000188424AD1FFE740F2A040C2F2000077
:1027D0000168013101600068012812D1FFE7FFE7BD
:1027E0000020099043F64000C4F20200016841F065
:1027F00000710160006800F0007009900998FFE71F
:10280000FFE7FFE70020089043F63000C4F2020023
:10281000016841F001010160006800F001000890CA
:102820000898FFE74FF4C0500A9002200B90002058
:1028300003900C9003200D9009200E900020C4F20C
:1028400002000AA900F0E4FC039A14200490114647
:1028500000F06AFF049800F05DFF65E00F980068E3
:1028600046F60001C4F2000188425CD1FFE7FFE7B1
:102870000020079043F64000C4F20200016841F0D6
:1028800080610160006800F0806007900798FFE7B2
:1028900040F2A040C2F2000001680131016000680E
:1028A000012812D1FFE7FFE70020069043F6400021
:1028B000C4F20200016841F000710160006800F09C
:1028C000007006900698FFE7FFE7FFE700200590FD
:1028D00043F63000C4F20200016841F002010160D9
:1028E000006800F0020005900598FFE74FF44050A3
:1028F0000A9002200B90002001900C9003200D9074
:1029000009200E9040F20040C4F202000AA900F033
:102910007FFC019A41200290114600F005FF0298C9
:1029200000F0F8FEFFE7FFE710B080BD81B0009037
:1029300001B0704780B582B0019040F2A000C2F2B1
:10294000000040F61071C2F200010BF0A7FB68BB5B
:10295000FFE740F24C10C2F200000BF0F1F998B919
:10296000FFE741F69440C2F20000006841F688415A
:10297000C2F20001097809F07FFC40F6A030C2F2F3
:10298000000080ED000AFFE741F68C40C2F2000033
:10299000006840F6D851C2F20001097808F082FFC1
:1029A00040F68011C2F200010860FFE702B080BD6E
:1029B00081B0009001B0704780B584B0039040F2C0
:1029C000F400C2F2000040F63871C2F200010BF0D0
:1029D00065FB00284FD1FFE740F2BC10C2F20000B7
:1029E0000BF0AEF998B9FFE741F6CC40C2F2000017
:1029F000006841F68841C2F20001097809F060FAE6
:102A000040F69060C2F2000080ED000AFFE740F25D
:102A10008050C2F200000BF083FA58BBFFE740F68B
:102A2000F460C2F20000006840F6D851C2F2000122
:102A3000097841F68842C2F20002127807F0C8FC19
:102A400040F29800C2F2000080ED000A90ED000A0A
:102A5000BDEEC00A10EE101A684641600023036004
:102A600040F2F400C2F200004FF400711A460BF07D
:102A70003DFBFFE7FFE704B080BD000081B00090A0
:102A800001B0704780B584B00290029890F82000A1
:102A900001282FD1FFE70299022081F82000029837
:102AA0000168086820F00100086000F0A5FD0190B1
:102AB000FFE7029800684068C007A8B1FFE700F090
:102AC0009BFD0199401A0B280DD3FFE70299486A34
:102AD00040F4003048620299052081F8200001206E
:102AE0008DF80F000FE0E4E70299002048628DF8AE
:102AF0000F0008E00299486A40F400204862012073
:102B00008DF80F00FFE79DF80F0004B080BD0000B6
:102B100081B0009001B0704781B0009001B0704763
:102B200081B0009001B0704781B0009001B0704753
:102B300081B0009001B0704781B0009001B0704743
:102B400081B0009001B0704780B584B002900298C7
:102B5000806D019000F050FD0090029890F83500D3
:102B600002280DD0FFE7029980204865FFE702990F
:102B7000002081F83400FFE701208DF80F0055E0B8
:102B800002980168086820F0160008600298016841
:102B9000486920F0800048610298006C20B9FFE786
:102BA0000298806C38B1FFE702980168086820F04D
:102BB00008000860FFE702980168086820F001003B
:102BC0000860FFE7029800680068C007C8B1FFE727
:102BD00000F012FD0099401A062811D3FFE7029970
:102BE000202048650299032081F83500FFE702990B
:102BF000002081F83400FFE703208DF80F0015E076
:102C0000E0E70298C16D3F208840019988600299F1
:102C1000012081F83500FFE70299002081F8340097
:102C2000FFE7FFE700208DF80F00FFE79DF80F009A
:102C300004B080BD82B00090009890F83500022862
:102C400007D0FFE700998020486501208DF8070034
:102C50000EE00099052081F83500009801680868A9
:102C600020F001000860FFE700208DF80700FFE773
:102C70009DF8070002B0704780B586B0059000202F
:102C8000039040F20400C2F20000006848F2B5115F
:102C9000C1F64E31A0FB0110800A02900598806DAC
:102CA000019001980068049004980599C96DC84086
:102CB000000700281AD5FFE705980068006840075C
:102CC000002812D5FFE705980168086820F0040085
:102CD00008600598C16D08208840019988600599B1
:102CE000486D40F001004865FFE7FFE7049805994B
:102CF000C96DC840C007A0B1FFE7059800684069EA
:102D0000000600280CD5FFE70598C16D012088401A
:102D1000019988600599486D40F002004865FFE719
:102D2000FFE704980599C96DC8404007002814D5ED
:102D3000FFE7059800680068800700280CD5FFE7CA
:102D40000598C16D04208840019988600599486DF7
:102D500040F004004865FFE7FFE704980599C96D56
:102D6000C840C006002847D5FFE7059800680068FE
:102D7000000700283FD5FFE70598C16D1020884067
:102D800001998860059800680068400300281AD5FA
:102D9000FFE70598006800680003002809D4FFE7F2
:102DA0000598006C20B1FFE70598016C8847FFE7A4
:102DB00008E00598806C20B1FFE70598816C884792
:102DC000FFE7FFE716E0059800680068C0050028E7
:102DD00007D4FFE705980168086820F0080008603C
:102DE000FFE70598006C20B1FFE70598016C884764
:102DF000FFE7FFE7FFE7FFE704980599C96DC840C3
:102E00008006002840F18D80FFE705980068006883
:102E1000C006002840F18480FFE70598C16D20209E
:102E2000884001998860059890F83500052834D1CC
:102E3000FFE705980168086820F01600086005980B
:102E40000168486920F0800048610598006C20B94D
:102E5000FFE70598806C38B1FFE7059801680868BE
:102E600020F008000860FFE70598C16D3F2088400A
:102E7000019988600599012081F83500FFE70599DF
:102E8000002081F83400FFE70598006D20B1FFE7CE
:102E90000598016D8847FFE77BE0059800680068AA
:102EA000400300281AD5FFE7059800680068000372
:102EB000002809D4FFE70598406C20B1FFE705988A
:102EC000416C8847FFE708E00598C06B20B1FFE739
:102ED0000598C16B8847FFE7FFE720E00598006889
:102EE0000068C005002811D4FFE70598016808684C
:102EF00020F0100008600599012081F83500FFE7F7
:102F00000599002081F83400FFE7FFE70598C06BC2
:102F100020B1FFE70598C16B8847FFE7FFE7FFE7B0
:102F2000FFE70598406DA0B3FFE70598406DC00727
:102F300030B3FFE70599052081F835000598016851
:102F4000086820F001000860FFE703980130039053
:102F50000299884201D9FFE707E0FFE7059800687A
:102F60000068C0070028F0D1FFE70599012081F82B
:102F70003500FFE70599002081F83400FFE7FFE7FF
:102F80000598C06C20B1FFE70598C16C8847FFE742
:102F9000FFE706B080BD000080B586B00490002039
:102FA000039000F029FB0290049820B9FFE701206C
:102FB0008DF81700A3E00498406A08B1FFE7FFE727
:102FC0000499022081F83500FFE70499002081F878
:102FD0003400FFE704980168086820F001000860E9
:102FE000FFE7049800680068C00790B1FFE700F0B1
:102FF00003FB0299401A06280AD3FFE70499202010
:1030000048650499032081F835008DF8170076E0B3
:10301000E7E70498006800680390039848F23F01CE
:10302000CFF2100108400390049900914868D1F84C
:1030300008C0CB680A6940EA0C00184310434A698B
:1030400010438A691043CA691043096A014303980F
:10305000084303900498406A042808D1FFE70499C4
:10306000C86A096B0143039808430390FFE703987C
:1030700004990968086004980068406903900398FF
:1030800020F0070003900498416A039808430390D6
:103090000498406A04281AD1FFE70498816A0398CB
:1030A000084303900498C06A80B1FFE70498FEF7D4
:1030B000B3FC50B1FFE70499402048650499012012
:1030C00081F835008DF8170019E0FFE7FFE7039856
:1030D0000499096848610498FEF772FC019004980D
:1030E000C16D3F208840019988600499002048659F
:1030F000049A012182F835108DF81700FFE79DF83A
:10310000170006B080BD000080B588B0069005911C
:103110000492039300208DF80B000698806D0190B7
:10312000FFE7069890F83400012804D1FFE7022059
:103130008DF81F0045E00699012081F83400FFE773
:10314000FFE7069890F8350001282BD1FFE7069994
:10315000022081F8350006990020486506980599F7
:10316000049A039BFEF7D0FC0698C16D3F2088406F
:103170000199886006980168086840F016000860A8
:103180000698006C38B1FFE706980168086840F0BF
:1031900008000860FFE706980168086840F0010031
:1031A000086009E0FFE70699002081F83400FFE796
:1031B00002208DF80B00FFE79DF80B008DF81F0033
:1031C000FFE79DF81F0008B080BD000080B584B007
:1031D000039000F011FA02900398019001980130D9
:1031E00048B1FFE740F21400C2F2000001780198F4
:1031F00008440190FFE7FFE700F0FEF90299401A4A
:103200000199884201D2FFE7F6E704B080BD0000D3
:103210008EB00D900C9100200A90099008900B90B0
:10322000FFE70B980F2800F2CC81FFE70B990120F4
:1032300088400A900C9800680A99084009900998FB
:103240000A99884240F0B881FFE70C98406800F086
:103250000300012807D0FFE70C98406800F0030046
:1032600002282FD1FFE70D98806808900B98410045
:10327000032000FA01F10898884308900C98C06870
:103280000B99490000FA01F1089808430890089842
:103290000D9988600D98406808900B99012000FAFC
:1032A00001F10898884308900C984068C0F300101A
:1032B0000B9900FA01F108980843089008980D99B5
:1032C0004860FFE70C98406800F00300032818D01E
:1032D000FFE70D98C06808900B984100032000FAA2
:1032E00001F10898884308900C9880680B99490070
:1032F00000FA01F108980843089008980D99C860F1
:10330000FFE70C98406800F00300022826D1FFE791
:103310000D980B996FF0030202EA51010844006A0C
:1033200008900B9800F0070081000F2000FA01F1CF
:103330000898884308900C9800690B9901F00701E0
:10334000890000FA01F108980843089008980D993F
:103350000B9B02EA530211440862FFE70D980068D4
:1033600008900B984100032000FA01F10898884367
:1033700008900C98406800F003000B99490000FA8F
:1033800001F108980843089008980D9908600C9876
:1033900080798007002800F00E81FFE7FFE700201A
:1033A000079043F64400C4F20200016841F48041F2
:1033B0000160006800F4804007900798FFE70B98D1
:1033C00020F0030043F60801C4F2010140580890C0
:1033D0000B9800F0030081000F2000FA01F108981B
:1033E000884308900D980021C4F20201884203D15D
:1033F000FFE7002006905EE00D9840F20041C4F225
:103400000201884203D1FFE70120059050E00D98AA
:1034100040F60001C4F20201884203D1FFE7022016
:10342000049042E00D9840F60041C4F20201884247
:1034300003D1FFE70320039034E00D9841F200012F
:10344000C4F20201884203D1FFE70420029026E083
:103450000D9841F20041C4F20201884203D1FFE716
:103460000520019018E00D9841F60001C4F2020118
:10347000884203D1FFE7062000900AE00D9941F64B
:103480000042C4F202020820914208BF07200090C7
:10349000FFE700980190FFE701980290FFE702988C
:1034A0000390FFE703980490FFE704980590FFE777
:1034B00005980690FFE70698C0B20B9901F003014A
:1034C000890000FA01F108980843089008980B99C0
:1034D00021F0030143F60802C4F20102885043F6CA
:1034E0000840C4F2010000680890099908988843D0
:1034F00008900C988079C006002805D5FFE7099947
:10350000089808430890FFE7089843F60841C4F27A
:103510000101086043F60C40C4F201000068089005
:1035200009990898884308900C98807980060028AB
:1035300005D5FFE70999089808430890FFE7089820
:1035400043F60C41C4F20101086043F60440C4F2A2
:1035500001000068089009990898884308900C9821
:1035600080798007002805D5FFE709990898084366
:103570000890FFE7089843F60441C4F2010108608F
:1035800043F60040C4F201000068089009990898C9
:10359000884308900C988079C00728B1FFE7099903
:1035A000089808430890FFE7089843F60041C4F2E2
:1035B00001010860FFE7FFE7FFE70B9801300B9080
:1035C0002FE60EB07047000082B00190ADF80210F7
:1035D0008DF801209DF8010028B1FFE7BDF8020039
:1035E0000199886105E0BDF8020000040199886135
:1035F000FFE702B07047000041F6C840C2F2000089
:103600000068704740F21400C2F20000027841F6F0
:10361000C841C2F200010868104408607047000009
:1036200080B543F60041C4F20201086840F400701E
:103630000860086840F480600860086840F48070A2
:103640000860032000F08AF80F2000F005F800F071
:103650003BF8002080BD000080B582B0009040F2B1
:103660000400C2F20000006840F21401C2F200013E
:103670000A784FF47A71B1FBF2F1B0FBF1F001F08E
:10368000B9FA20B1FFE701208DF8070018E0009893
:103690000F280DD8FFE700994FF0FF30002200F00F
:1036A00043F8009840F21801C2F20001086003E0FC
:1036B00001208DF8070003E000208DF80700FFE7E8
:1036C0009DF8070002B080BD82B0FFE700200190A6
:1036D00043F64400C4F20200016841F480410160F5
:1036E000006800F4804001900198FFE7FFE70020A8
:1036F000009043F64000C4F20200016841F080519E
:103700000160006800F0805000900098FFE702B070
:103710007047000080B582B08DF807009DF9070062
:103720000BF002F802B080BD80B586B08DF81700AE
:1037300004910392002002900BF00EF802909DF984
:103740001700019002980499039A03F081FF014643
:1037500001980BF009F806B080BD000080B582B07A
:10376000019001980BF022F802B080BD80B584B0C2
:1037700002900191029820B9FFE701208DF80F0017
:1037800021E1019843F60041C4F20201096801F009
:103790000701884212D9FFE7019943F60040C4F2BD
:1037A00002000170006800F007000199884204D00F
:1037B000FFE701208DF80F0005E1FFE70298007890
:1037C000800700282AD5FFE70298007840070028E4
:1037D00009D5FFE743F60801C4F20201086840F486
:1037E000E0500860FFE7029800780007002809D53C
:1037F000FFE743F60801C4F20201086840F46040A4
:103800000860FFE743F60801C4F20201086820F0EF
:10381000F000029A926810430860FFE7029800786F
:10382000C00700286ED0FFE702984068012811D138
:10383000FFE743F60000C4F20200006800F4003124
:103840000020B0EB514F04D1FFE701208DF80F00AD
:10385000B9E02CE002984068022805D0FFE7029802
:103860004068032811D1FFE743F60000C4F20200CC
:10387000006800F000710020B0EB516F04D1FFE749
:1038800001208DF80F009EE010E043F60000C4F226
:103890000200006800F002010020B0EB510F04D1DB
:1038A000FFE701208DF80F008DE0FFE7FFE743F60B
:1038B0000801C4F20201086820F00300029A52686D
:1038C00010430860FFF798FE0090FFE743F60800FA
:1038D000C4F20200006800F00C0002994968B0EBE5
:1038E000810F0ED0FFE7FFF787FE0099401A41F2E3
:1038F0008931884204D3FFE703208DF80F0062E08E
:10390000E4E7FFE7019843F60041C4F202010968C9
:1039100001F00701884212D2FFE7019943F6004007
:10392000C4F202000170006800F0070001998842AB
:1039300004D0FFE701208DF80F0044E0FFE7029874
:103940000078400700280CD5FFE743F60801C4F2D1
:103950000201086820F4E050029AD268104308601F
:10396000FFE702980078000700280DD5FFE743F62F
:103970000801C4F20201086820F46040029A12694A
:1039800040EAC2000860FFE700F04CF843F6080187
:10399000C4F202010968C9B20A0941F2FC31C0F659
:1039A0000101895CC84040F20401C2F200010860D4
:1039B00040F21800C2F200000068FFF74DFE002040
:1039C0008DF80F00FFE79DF80F0004B080BD0000E8
:1039D00040F20400C2F200000068704780B5FFF7B3
:1039E000F7FF43F60801C4F202010968C1F382221D
:1039F00041F20C41C0F60101895CC84080BD000065
:103A000080B5FFF7E5FF43F60801C4F2020109683B
:103A100089B24A0B41F20C41C0F60101895CC840F1
:103A200080BD000080B586B0002005900490039012
:103A3000029043F60800C4F20200006800F00C0097
:103A40000146019140B1FFE7019804280AD0FFE741
:103A5000019808280CD04FE042F20040C0F2F40078
:103A600002904FE047F64000C0F27D10029049E01E
:103A700043F60400C4F20200016801F03F01059121
:103A800000684002002813D5FFE743F60400C4F2A3
:103A900002000068C0F3881047F64001C0F27D11B3
:103AA000A0FB0101059A0023FCF73AFC049012E008
:103AB00043F60400C4F202000068C0F3881042F22A
:103AC0000041C0F2F401A0FB0101059A0023FCF7BC
:103AD00027FC0490FFE743F60400C4F202000068EC
:103AE00000F44031022000EBD13003900498039998
:103AF000B0FBF1F0029005E042F20040C0F2F400A9
:103B00000290FFE7029806B080BD000080B586B045
:103B10000490049820B9FFE701208DF8170050E3C6
:103B200004980078C007002800F0A580FFE743F65E
:103B30000800C4F20200006800F00C00042813D052
:103B4000FFE743F60800C4F20200006800F00C0032
:103B500008281ED1FFE743F60400C4F20200006803
:103B60004002002815D5FFE743F60000C4F202002A
:103B7000006800F400310020B0EB514F08D0FFE79F
:103B80000498406820B9FFE701208DF8170018E37A
:103B900070E0FFE704984068B0F5803F09D1FFE787
:103BA00043F60001C4F20201086840F48030086066
:103BB00020E004984068B0F5A02F0DD1FFE743F650
:103BC0000001C4F20201086840F48020086008681F
:103BD00040F4803008600CE043F60001C4F20201BA
:103BE000086820F480300860086820F480200860AD
:103BF000FFE7FFE7FFE704984068E8B1FFE7FFF75A
:103C0000FBFC0390FFE743F60000C4F202000068EB
:103C100000F400310020B0EB514F0CD1FFE7FFF76B
:103C2000EBFC0399401A652804D3FFE703208DF8C5
:103C30001700C6E2E7E71CE0FFF7DEFC0390FFE7B2
:103C400043F60000C4F20200006800F400310020D6
:103C5000B0EB514F0CD0FFE7FFF7CEFC0399401AB1
:103C6000652804D3FFE703208DF81700A9E2E7E7F2
:103C7000FFE7FFE7FFE7049800788007002840F19E
:103C80009680FFE743F60800C4F20200006810F0D7
:103C90000C0F13D0FFE743F60800C4F202000068DF
:103CA00000F00C0008282CD1FFE743F60400C4F212
:103CB000020000684002002823D4FFE743F600001A
:103CC000C4F20200006800F002010020B0EB510FC6
:103CD00009D0FFE70498C068012804D0FFE701205D
:103CE0008DF817006DE243F60001C4F20201086886
:103CF00020F0F800049A126940EAC2000860FFE769
:103D000054E00498C06870B3FFE70021C4F2472173
:103D100001200860FFF770FC0390FFE743F6000006
:103D2000C4F20200006800F002010020B0EB510F65
:103D30000CD1FFE7FFF760FC0399401A032804D376
:103D4000FFE703208DF817003BE2E7E743F60001A9
:103D5000C4F20201086820F0F800049A126940EAEF
:103D6000C200086021E00021C4F247210020086061
:103D7000FFF742FC0390FFE743F60000C4F20200A5
:103D8000006800F002010020B0EB510F0CD0FFE7FB
:103D9000FFF732FC0399401A032804D3FFE70320FE
:103DA0008DF817000DE2E7E7FFE7FFE7FFE704986C
:103DB0000078000700284BD5FFE70498406918B346
:103DC000FFE740F68061C4F2472101200860FFF759
:103DD00013FC0390FFE743F67400C4F2020000688E
:103DE00000F002010020B0EB510F0CD1FFE7FFF70C
:103DF00003FC0399401A032804D3FFE703208DF83E
:103E00001700DEE1E7E722E040F68061C4F24721D7
:103E100000200860FFF7F0FB0390FFE743F6740013
:103E2000C4F20200006800F002010020B0EB510F64
:103E30000CD0FFE7FFF7E0FB0399401A032804D3F7
:103E4000FFE703208DF81700BBE1E7E7FFE7FFE797
:103E5000049800784007002840F1CE80FFE700205A
:103E60008DF8070043F64000C4F202000068C0006D
:103E7000002815D4FFE7FFE70020009043F640003C
:103E8000C4F20200016841F080510160006800F056
:103E9000805000900098FFE701208DF80700FFE7B1
:103EA00047F20000C4F200000068C005002822D4D8
:103EB000FFE747F20001C4F20001086840F4807097
:103EC0000860FFF799FB0390FFE747F20000C4F298
:103ED00000000068C00500280CD4FFE7FFF78CFB4A
:103EE0000399401A032804D3FFE703208DF8170035
:103EF00067E1EAE7FFE7FFE704988068012809D156
:103F0000FFE743F67001C4F20201086840F00100C7
:103F100008601FE00498806805280DD1FFE743F68C
:103F20007001C4F20201086840F0040008600868EB
:103F300040F0010008600CE043F67001C4F2020199
:103F4000086820F001000860086820F0040008609C
:103F5000FFE7FFE7FFE704988068F8B1FFE7FFF7A6
:103F60004BFB0390FFE743F67000C4F202000068C9
:103F700000F002010020B0EB510F0ED1FFE7FFF778
:103F80003BFB0399401A41F28931884204D3FFE791
:103F900003208DF8170014E1E5E71EE0FFF72CFB86
:103FA0000390FFE743F67000C4F20200006800F0DF
:103FB00002010020B0EB510F0ED0FFE7FFF71CFB12
:103FC0000399401A41F28931884204D3FFE7032064
:103FD0008DF81700F5E0E5E7FFE79DF807000128F9
:103FE00009D1FFE743F64001C4F20201086820F05E
:103FF00080500860FFE7FFE704988069002800F020
:10400000DC80FFE743F60800C4F20200006800F01D
:104010000C00082800F08580FFE7049880690228DA
:104020005CD1FFE76021C4F2472100200860FFF760
:10403000E3FA0390FFE743F60000C4F202000068D1
:1040400000F000710020B0EB516F0CD0FFE7FFF7DC
:10405000D3FA0399401A032804D3FFE703208DF80D
:104060001700AEE0E7E70499C869D1F820C04B6AB1
:104070008A6A40EA0C0040EA8310D2034FF6FF73CD
:104080009A43A2F580321043C96A40EA016043F6C0
:104090000401C4F2020108606021C4F2472101203A
:1040A0000860FFF7A9FA0390FFE743F60000C4F2A7
:1040B0000200006800F000710020B0EB516F0CD1DD
:1040C000FFE7FFF799FA0399401A032804D3FFE7A3
:1040D00003208DF8170074E0E7E721E06021C4F2C7
:1040E000472100200860FFF787FA0390FFE743F6B7
:1040F0000000C4F20200006800F000710020B0EB84
:10410000516F0CD0FFE7FFF777FA0399401A0328A5
:1041100004D3FFE703208DF8170052E0E7E7FFE73D
:104120004AE004988069012804D1FFE701208DF856
:10413000170046E043F60400C4F202000068029053
:1041400004988069012831D0FFE7029800F48000CC
:104150000499C969884229D1FFE7029800F03F001D
:104160000499096A884221D1FFE7029847F6C07195
:1041700008400499496AB0EB811F17D1FFE7029804
:1041800000F440300499896AC9034FF6FF729143E5
:10419000A1F58031884209D1FFE7029800F07060F4
:1041A0000499C96AB0EB016F04D0FFE701208DF8D4
:1041B000170006E0FFE7FFE7FFE700208DF8170094
:1041C000FFE79DF8170006B080BD000080B584B001
:1041D0000290029820B9FFE701208DF80F0071E0EE
:1041E0000298406A60B9FFE702984068B0F5827FA4
:1041F00001D1FFE703E002990020C861FFE705E075
:1042000002990020086102994861FFE702990020A5
:104210008862029890F8510040B9FFE702990020A7
:1042200081F85000029800F051F8FFE7029902204F
:1042300081F8510002980168086820F04000086089
:10424000029A019211685068D2F808C0D36800F44D
:1042500082700CF4044C604403F400631844136946
:1042600003F002031844536903F0010318449369EF
:1042700003F400731844D36903F038031844136A35
:1042800003F080031843926A02F40052104308605E
:10429000029A508B00F004001168526A02F010027A
:1042A0001044486002980168C86920F40060C86141
:1042B000029900204865029A012182F851108DF878
:1042C0000F00FFE79DF80F0004B080BD80B588B0F7
:1042D00007900020069005900490039002900798A4
:1042E000006843F20001C4F20101884233D1FFE7C4
:1042F000FFE70020019043F64400C4F20200016889
:1043000041F480510160006800F4805001900198F0
:10431000FFE7FFE70020009043F63000C4F2020000
:10432000016841F001010160006800F001000090A7
:104330000098FFE7E0200290022003900020049004
:1043400003200590052006900020C4F2020002A977
:10435000FEF75EFFFFE708B080BD000080B588B0C3
:1043600006900591ADF812200393069890F851003D
:10437000012804D0FFE702208DF81F0011E1059805
:1043800020B1FFE7BDF8120020B9FFE701208DF84A
:104390001F0006E106984068B0F5827F16D1FFE75E
:1043A0000698806890B9FFE70699042081F85100CB
:1043B0000698059ABDF812300399EC46CCF8001027
:1043C000114600F045FA8DF81F00EAE0FFF714F9F6
:1043D0000290FFE7069890F85000012804D1FFE70B
:1043E00002208DF81F00DCE00699012081F85000C2
:1043F000FFE7FFE70699042081F8510006990020A5
:1044000048650599069A9163BDF81210069A91873E
:10441000BDF81210069AD187069908630699888616
:104420000699C886069908640699486406988068C3
:10443000B0F5004F0DD1FFE706980168086820F03D
:104440004000086006980168086820F48040086011
:10445000FFE706980068006800F04000402807D099
:10446000FFE706980168086840F040000860FFE731
:104470000698C068D0BBFFE7FFE70698C08FA0B3DF
:10448000FFE7069800688068C00778B1FFE70698E4
:104490000068007B0699896B08700699886B01306B
:1044A00088630699C88F0138C8871DE0FFF7A4F814
:1044B0000299401A0399884204D3FFE70398013018
:1044C00018B9FFE7039870B9FFE70699012081F852
:1044D0005100FFE70699002081F85000FFE7032014
:1044E0008DF81F005DE0FFE7C7E739E0FFE70698BA
:1044F000C08FA0B3FFE7069800688068C00778B156
:10450000FFE706980068C0680699896B08800699DD
:10451000886B023088630699C88F0138C8871DE010
:10452000FFF76AF80299401A0399884204D3FFE71B
:104530000398013018B9FFE7039870B9FFE70699AF
:10454000012081F85100FFE70699002081F8500012
:10455000FFE703208DF81F0023E0FFE7C7E7FFE731
:1045600006980399029A03F0B5F820B1FFE706997F
:1045700020204865FFE70699012081F85100FFE7F8
:104580000699002081F85000FFE70698406D20B1A1
:10459000FFE701208DF81F0003E000208DF81F00C9
:1045A000FFE79DF81F0008B080BD000080B588B00F
:1045B00006900591ADF812200393FFF71DF80290C5
:1045C000BDF81200ADF80600069890F851000128D9
:1045D00004D0FFE702208DF81F0034E1059820B1D8
:1045E000FFE7BDF8120020B9FFE701208DF81F009A
:1045F00029E1FFE7069890F85000012804D1FFE771
:1046000002208DF81F001EE10699012081F850005C
:10461000FFE7FFE70699032081F851000699002083
:1046200048650599069A1163BDF81210069A91869D
:10463000BDF81210069AD186069988630699888774
:104640000699C887069948640699086406988068A0
:10465000B0F5004F0DD1FFE706980168086820F01B
:104660004000086006980168086840F480400860CF
:10467000FFE706980068006800F04000402807D077
:10468000FFE706980168086840F040000860FFE70F
:104690000698C068B0F5006F51D1FFE706984068F2
:1046A00028B1FFE7BDF8060001280ED1FFE7069804
:1046B0000168006B0088C8600699086B02300863C7
:1046C0000699C88E0138C886FFE7FFE70698C08EB6
:1046D000A0B3FFE7069800688068800700280ED521
:1046E000FFE706980168006B0088C8600699086BB0
:1046F000023008630699C88E0138C8861DE0FEF7AF
:104700007BFF0299401A0399884204D3FFE703987C
:10471000013018B9FFE7039870B9FFE70699012047
:1047200081F85100FFE70699002081F85000FFE76B
:1047300003208DF81F0086E0FFE7C7E750E00698EA
:10474000406828B1FFE7BDF8060001280ED1FFE759
:1047500006980168006B007808730699086B0130B1
:1047600008630699C88E0138C886FFE7FFE70698F8
:10477000C08EA0B3FFE70698006880688007002815
:104780000ED5FFE706980168006B0078087306995C
:10479000086B013008630699C88E0138C8861DE091
:1047A000FEF72AFF0299401A0399884204D3FFE7D3
:1047B0000398013018B9FFE7039870B9FFE706992D
:1047C000012081F85100FFE70699002081F8500090
:1047D000FFE703208DF81F0035E0FFE7C7E7FFE79D
:1047E00006980399029A02F0E7FF20B1FFE70699C5
:1047F00020204865FFE70698806870B9FFE7FFE76B
:104800000020009006980068C06800900698006834
:10481000806800900098FFE7FFE70699012081F883
:104820005100FFE70699002081F85000FFE7069845
:10483000406D20B1FFE701208DF81F0003E000204C
:104840008DF81F00FFE79DF81F0008B080BD000035
:1048500080B58CB0DDF838C00A9009910892ADF8A7
:104860001E3001200390FEF7C7FE04900A9890F8CE
:1048700051008DF817000A9840680690BDF81E0098
:10488000ADF81C009DF81700012812D0FFE706982C
:10489000B0F5827F09D1FFE70A98806828B9FFE761
:1048A0009DF81700042804D0FFE702208DF82F00A0
:1048B0009BE1099838B1FFE7089820B1FFE7BDF800
:1048C0001E0020B9FFE701208DF82F008DE1FFE7E2
:1048D0000A9890F85000012804D1FFE702208DF8D3
:1048E0002F0082E10A99012081F85000FFE7FFE7DD
:1048F0000A9890F85100042805D0FFE70A9905208E
:1049000081F85100FFE70A990020486508990A9A42
:104910009163BDF81E100A9AD187BDF81E100A9A3D
:10492000918709990A9A1163BDF81E100A9AD186D7
:10493000BDF81E100A9A91860A9908640A9948647B
:104940000A980068006800F04000402807D0FFE7A0
:104950000A980168086840F040000860FFE70A987C
:10496000C068B0F5006F40F08180FFE70A984068AA
:1049700028B1FFE7BDF81C0001280ED1FFE70A9817
:104980000168006B0088C8600A99086B02300863F0
:104990000A99C88E0138C886FFE7FFE70A98C18EDA
:1049A0000120019039B9FFE70A98C08F002818BF8D
:1049B00001200190FFE70198C007002855D0FFE7CC
:1049C0000A98006880688007002818D5FFE70A98D1
:1049D000C08EA0B1FFE70398012810D1FFE70A9825
:1049E0000168006B0088C8600A99086B0230086390
:1049F0000A99C88E0138C88600200390FFE70A98FC
:104A000000688068C007A8B1FFE70A98C08F88B126
:104A1000FFE70A980068C0680A99896B08800A99BC
:104A2000886B023088630A99C88F0138C8870120D3
:104A30000390FFE7FEF7E0FD0499401A0E998842C3
:104A400012D3FFE70E98013070B1FFE70A990120F9
:104A500081F85100FFE70A99002081F85000FFE734
:104A600003208DF82F00C0E098E782E00A984068A4
:104A700028B1FFE7BDF81C0001280ED1FFE70A9816
:104A80000168006B007808730A99086B01300863AD
:104A90000A99C88E0138C886FFE7FFE70A98C18ED9
:104AA0000120009039B9FFE70A98C08F002818BF8D
:104AB00001200090FFE70098C007002858D0FFE7CA
:104AC0000A98006880688007002818D5FFE70A98D0
:104AD000C08EA0B1FFE70398012810D1FFE70A9824
:104AE0000168006B007808730A99086B013008634D
:104AF0000A99C88E0138C88600200390FFE70A98FB
:104B000000688068C007A8B1FFE70A98C08F88B125
:104B1000FFE70A980068C0680A99896B08700A99CB
:104B2000886B013088630A99C88F0138C8870120D3
:104B30000390FFE7FEF760FD0499401A0E99884242
:104B400004D3FFE70E98013018B9FFE70E9870B94B
:104B5000FFE70A99012081F85100FFE70A99002038
:104B600081F85000FFE703208DF82F003DE095E726
:104B7000FFE70A980E99049A02F01EFE68B1FFE75B
:104B80000A9920204865FFE70A99002081F8500023
:104B9000FFE701208DF82F0027E00A98806870B9A0
:104BA000FFE7FFE7002002900A980068C0680290C3
:104BB0000A980068806802900298FFE7FFE70A9968
:104BC000012081F85100FFE70A99002081F8500088
:104BD000FFE70A98406D20B1FFE701208DF82F0014
:104BE00003E000208DF82F00FFE79DF82F000CB0A8
:104BF00080BD000080B582B00190019802F0DAFE1D
:104C000002B080BD81B0009001B0704781B00090CB
:104C100001B0704785B003900291FFE7039890F8C8
:104C20003C00012804D1FFE702208DF813007EE04C
:104C30000399012081F83C00FFE7FFE70399022078
:104C400081F83D000398006840680190039800686F
:104C500080680090019820F070000190029801682F
:104C600001980843019001980399096848600398E6
:104C700000680021C4F2010188423CD0FFE703989C
:104C80000068B0F1804F36D0FFE70398006840F22B
:104C90000041C4F2000188422DD0FFE7039800686C
:104CA00040F60001C4F20001884224D0FFE70398D7
:104CB000006840F60041C4F2000188421BD0FFE7C3
:104CC0000398006840F20041C4F20101884212D00A
:104CD000FFE70398006844F20001C4F20101884232
:104CE00009D0FFE70398006841F60001C4F2000113
:104CF00088420ED1FFE7009820F0800000900298D3
:104D000041680098084300900098039909688860FA
:104D1000FFE70399012081F83D00FFE70399002098
:104D200081F83C00FFE700208DF81300FFE79DF8B5
:104D3000130005B07047000080B582B00090009865
:104D400020B9FFE701208DF807003FE0009890F8B8
:104D50003D0040B9FFE70099002081F83C00009831
:104D600000F038F8FFE70099022081F83D00009933
:104D700051F8040B02F08EFE0099012081F84600E4
:104D8000FFE70099012081F83E00009981F83F007B
:104D9000009981F84000009981F84100FFE7FFE7A2
:104DA0000099012081F84200009981F843000099A0
:104DB00081F84400009981F84500FFE7009901203F
:104DC00081F83D0000208DF80700FFE79DF80700FF
:104DD00002B080BD80B590B00F900F9800680021A0
:104DE000C4F2010188421BD1FFE7FFE700200E90CB
:104DF00043F64400C4F20200016841F00101016081
:104E0000006800F001000E900E98FFE7192007904F
:104E100000221146FEF788FC0798FEF77BFCDBE0DA
:104E20000F980068B0F1804F1BD1FFE7FFE700202B
:104E30000D9043F64000C4F20200016841F0010108
:104E40000160006800F001000D900D98FFE71C2044
:104E5000069000221146FEF767FC0698FEF75AFC02
:104E6000B9E00F98006840F20041C4F200018842A6
:104E700012D1FFE7FFE700200C9043F64000C4F298
:104E80000200016841F002010160006800F00200C8
:104E90000C900C98FFE79DE00F98006840F60041E9
:104EA000C4F2000188421BD1FFE7FFE700200B900E
:104EB00043F64000C4F20200016841F008010160BD
:104EC000006800F008000B900B98FFE73220059077
:104ED00000221146FEF728FC0598FEF71BFC78E03F
:104EE0000F98006841F20001C4F2000188421BD112
:104EF000FFE7FFE700200A9043F64000C4F20200FB
:104F0000016841F010010160006800F010000A9093
:104F10000A98FFE73620049000221146FEF704FCB1
:104F20000498FEF7F7FB53E00F98006841F2004148
:104F3000C4F2000188421BD1FFE7FFE7002009907F
:104F400043F64000C4F20200016841F02001016014
:104F5000006800F0200009900998FFE737200390CF
:104F600000221146FEF7E0FB0398FEF7D3FB2EE08C
:104F70000F98006840F20041C4F20101884225D137
:104F8000FFE7FFE70020089043F64400C4F2020068
:104F9000016841F002010160006800F00200089021
:104FA0000898FFE72B200090002201921146FEF79F
:104FB000BBFB0098FEF7AEFB019A2C200290114635
:104FC000FEF7B2FB0298FEF7A5FBFFE7FFE7FFE75E
:104FD000FFE7FFE7FFE7FFE710B080BD83B0019078
:104FE000019890F83D00012804D0FFE701208DF8DA
:104FF0000B006AE00199022081F83D0001980168E8
:10500000C86840F00100C860019800680021C4F23F
:10501000010188423CD0FFE701980068B0F1804F61
:1050200036D0FFE70198006840F20041C4F2000169
:1050300088422DD0FFE70198006840F60001C4F2D5
:105040000001884224D0FFE70198006840F6004143
:10505000C4F2000188421BD0FFE70198006840F2CB
:105060000041C4F20101884212D0FFE701980068B4
:1050700044F20001C4F20101884209D0FFE701981F
:10508000006841F60001C4F20001884212D1FFE736
:1050900001980068806800F00700009000980628DA
:1050A00007D0FFE701980168086840F00100086038
:1050B000FFE706E001980168086840F00100086019
:1050C000FFE700208DF80B00FFE79DF80B0003B011
:1050D0007047000080B586B00490039100208DF8E1
:1050E0000B00FFE7049890F83C00012804D1FFE78B
:1050F00002208DF81700ABE00499012081F83C00F4
:10510000FFE7FFE70499022081F83D00049800685A
:1051100080680190019820F077000190019820F4B8
:105120007F4001900198049909688860039800689D
:105130000090002872D0FFE7009810286ED0FFE79B
:10514000009820286AD0FFE70098302866D0FFE753
:105150000098402855D0FFE70098502837D0FFE747
:105160000098602840D0FFE7009870280BD0FFE738
:105170000098B0F5805F05D0FFE70098B0F5005FBC
:1051800016D052E055E004980068039B5A6899686D
:10519000DB6802F06DFD049800688068019001985A
:1051A00040F077000190019804990968886040E018
:1051B00004980068039B5A689968DB6802F058FD00
:1051C00004980168886840F48040886031E0049861
:1051D0000068039A5168D26802F036FF04980068AC
:1051E000502102F05FFD24E004980068039A5168A2
:1051F000D26802F051FF04980068602102F052FD6D
:1052000017E004980068039A5168D26802F01CFF06
:1052100004980068402102F045FD0AE00498006807
:105220000399096802F03EFD03E001208DF80B00B0
:10523000FFE70499012081F83D00FFE70499002071
:1052400081F83C00FFE79DF80B008DF81700FFE7A1
:105250009DF8170006B080BD81B0009001B0704786
:1052600080B584B0039003980068C06802900398EA
:105270000068006901909DF804008007002824D58B
:10528000FFE79DF80800800700281DD5FFE7039879
:1052900001686FF002000861039901200877039804
:1052A00000688069800720B1FFE70398FFF7D4FF0B
:1052B00006E0039800F018F9039800F00DFAFFE7F4
:1052C000039900200877FFE7FFE79DF804004007F7
:1052D000002825D5FFE79DF80800400700281ED5C7
:1052E000FFE7039801686FF004000861039902204A
:1052F000087703980068806910F4407F04D0FFE7C6
:105300000398FFF7A9FF06E0039800F0EDF8039873
:1053100000F0E2F9FFE7039900200877FFE7FFE7D5
:105320009DF804000007002824D5FFE79DF8080039
:10533000000700281DD5FFE7039801686FF00800FB
:10534000086103990420087703980068C069800702
:1053500020B1FFE70398FFF77FFF06E0039800F016
:10536000C3F8039800F0B8F9FFE703990020087725
:10537000FFE7FFE79DF80400C006002825D5FFE7FA
:105380009DF80800C00600281ED5FFE703980168B5
:105390006FF01000086103990820087703980068EF
:1053A000C06910F4407F04D0FFE70398FFF754FF73
:1053B00006E0039800F098F8039800F08DF9FFE7F5
:1053C000039900200877FFE7FFE79DF80400C00776
:1053D00078B1FFE79DF80800C00748B1FFE70398E0
:1053E00001686FF001000861039800F05FFAFFE7C1
:1053F000FFE79DF804000006002810D5FFE79DF8A0
:1054000008000006002809D5FFE7039801686FF03F
:10541000800008610398FFF7F5FBFFE7FFE79DF8C1
:1054200004004006002810D5FFE79DF8080040065C
:10543000002809D5FFE7039801686FF04000086174
:10544000039800F081FBFFE7FFE79DF8040080066A
:10545000002810D5FFE79DF808008006002809D530
:10546000FFE7039801686FF0200008610398FFF7D9
:10547000CDFBFFE7FFE704B080BD000080B588B03A
:1054800007900020069005900490039002900798E2
:10549000006840F20041C4F20001884221D1FFE7D8
:1054A000FFE70020019043F63000C4F202000168DB
:1054B00041F002010160006800F0020001900198D3
:1054C000FFE7012002900220039000210491059142
:1054D000069040F20040C4F2020002A9FDF798FED7
:1054E000FFE708B080BD000081B0009001B07047B8
:1054F00080B586B004900391029200208DF80700D9
:10550000FFE7049890F83C00012804D1FFE702204F
:105510008DF8170089E00499012081F83C00FFE72D
:10552000FFE7029800900C2800F270800099DFE8F5
:1055300001F0076D6D6D206D6D6D3A6D6D6D5300F1
:1055400004980068039902F0C3FB04980168886915
:1055500040F00800886104980168886920F0040020
:10556000886103980269049801688869104388611A
:1055700050E004980068039902F020FC0498016848
:10558000886940F40060886104980168886920F4A3
:10559000806088610398026904980168886940EA1C
:1055A0000220886136E004980068039902F080FCCC
:1055B00004980168C86940F00800C861049801684F
:1055C000C86920F00400C861039802690498016862
:1055D000C8691043C8611DE004980068039902F08F
:1055E000E1FC04980168C86940F40060C86104984F
:1055F0000168C86920F48060C86103980269049852
:105600000168C86940EA0220C86103E001208DF802
:105610000700FFE7FFE70499002081F83C00FFE75F
:105620009DF807008DF81700FFE79DF8170006B0FA
:1056300080BD000080B582B00090009820B9FFE7DF
:1056400001208DF807003FE0009890F83D0040B938
:10565000FFE70099002081F83C00009800F038F83E
:10566000FFE70099022081F83D00009951F8040BF2
:1056700002F010FA0099012081F84600FFE7009936
:10568000012081F83E00009981F83F00009981F8DF
:105690004000009981F84100FFE7FFE700990120F1
:1056A00081F84200009981F84300009981F8440094
:1056B000009981F84500FFE70099012081F83D003D
:1056C00000208DF80700FFE79DF8070002B080BDBD
:1056D00081B0009001B0704781B0009001B0704778
:1056E00080B58CB00A900991099828B9FFE70A980B
:1056F00090F83E0007901CE00998042805D1FFE7C8
:105700000A9890F83F00069010E00998082805D103
:10571000FFE70A9890F84000059004E00A9890F896
:1057200041000590FFE705980690FFE7069807906F
:10573000FFE70798012804D0FFE701208DF82F002C
:10574000AFE0099828B9FFE70A99022081F83E00E6
:105750001EE00998042806D1FFE70A99022081F883
:105760003F00049012E00998082806D1FFE70A9943
:10577000022081F84000039005E00A99022081F898
:1057800041000390FFE703980490FFE70498FFE7C8
:105790000A98006809990122019202F04DFA0198D5
:1057A0000A9909680022C4F20102914202900CD0C9
:1057B000FFE70A9800684FF60041CBF6FE710844F7
:1057C000B0FA80F040090290FFE70298C00738B1B4
:1057D000FFE70A980168486C40F400404864FFE71E
:1057E0000A9800680021C4F2010188423CD0FFE71A
:1057F0000A980068B0F1804F36D0FFE70A98006839
:1058000040F20041C4F2000188422DD0FFE70A981F
:10581000006840F60001C4F20001884224D0FFE78E
:105820000A98006840F60041C4F2000188421BD08B
:10583000FFE70A98006840F20041C4F20101884283
:1058400012D0FFE70A98006844F20001C4F2010197
:10585000884209D0FFE70A98006841F60001C4F2C7
:105860000001884212D1FFE70A980068806800F0C2
:10587000070008900898062807D0FFE70A980168F3
:10588000086840F001000860FFE706E00A98016838
:10589000086840F001000860FFE700208DF82F0045
:1058A000FFE79DF82F000CB080BD000080B582B0EE
:1058B0000190019841F25C61C2F20001884203D17B
:1058C000FFE703F08DFEFFE7019841F27C71C2F221
:1058D000000188426BD1FFE740F22C20C2F20000A9
:1058E000007838B9FFE740F61840C2F2000005F032
:1058F00075FCFFE740F61840C2F2000005F08EFC90
:1059000040F6ED60C2F20000007849F69812C1F648
:1059100099124CF6CD41CCF6CC4100FB01204FEA68
:10592000F00046F26661C0F26661884237D8FFE750
:1059300040F6EB60C2F200000078D0B1FFE740F221
:10594000BC10C2F20000022108F0C8F941F6C341C0
:10595000C2F2000108780130087040F6ED61C2F231
:1059600000010020087040F6EB61C2F200010870EF
:1059700014E040F24C10C2F200000121009108F046
:10598000ADF9009840F6EB61C2F20001087040F6F4
:10599000ED61C2F2000100200870FFE7FFE740F66A
:1059A000ED61C2F20001087801300870FFE701984C
:1059B00041F2C471C2F2000188420ED1FFE740F209
:1059C0003020C2F2000007F0DDFD40F6F460C2F2C4
:1059D0000000006804F024FBFFE7019841F2A46195
:1059E000C2F20001884240F08580FFE740F6EC609B
:1059F000C2F200000078C007D0BBFFE740F24C10B5
:105A0000C2F20000B0F90A00012830D1FFE740F6E9
:105A10006430C2F20000007890B9FFE740F24C1009
:105A2000C2F2000001219FED462AB0EE420AF0EEDC
:105A3000420AB0EE421AF0EE421A08F0ADF815E054
:105A400040F6A030C2F2000090ED002A40F24C1067
:105A5000C2F2000001219FED3A1AF7EE001AB0EEF3
:105A6000410AF0EE410A08F097F8FFE7FFE739E056
:105A700040F2BC10C2F20000B0F90A00012830D197
:105A8000FFE740F61440C2F20000007890B9FFE74B
:105A900040F2BC10C2F2000002219FED292AB0EEB4
:105AA000420AF0EE420AB0EE421AF0EE421A08F054
:105AB00073F815E040F69060C2F2000090ED002A05
:105AC00040F2BC10C2F2000002219FED1D1ADFED72
:105AD0001D1AB0EE410AF0EE410A08F05DF8FFE74A
